{"abi":[{"type":"constructor","inputs":[{"name":"coreContract","type":"address","internalType":"address"}],"stateMutability":"nonpayable"},{"type":"function","name":"CREDITS_REQUIRED_FOR_GRADUATION","inputs":[],"outputs":[{"name":"","type":"uint256","internalType":"uint256"}],"stateMutability":"view"},{"type":"function","name":"balanceOf","inputs":[{"name":"owner","type":"address","internalType":"address"}],"outputs":[{"name":"","type":"uint256","internalType":"uint256"}],"stateMutability":"view"},{"type":"function","name":"getDiplomaIdForStudent","inputs":[{"name":"student","type":"address","internalType":"address"}],"outputs":[{"name":"","type":"uint256","internalType":"uint256"}],"stateMutability":"view"},{"type":"function","name":"getDiplomaMetadata","inputs":[{"name":"tokenId","type":"uint256","internalType":"uint256"}],"outputs":[{"name":"","type":"uint256","internalType":"uint256"},{"name":"","type":"uint256","internalType":"uint256"},{"name":"","type":"string","internalType":"string"},{"name":"","type":"string","internalType":"string"}],"stateMutability":"view"},{"type":"function","name":"getUniversityCoreContract","inputs":[],"outputs":[{"name":"","type":"address","internalType":"address"}],"stateMutability":"view"},{"type":"function","name":"hasValid","inputs":[{"name":"owner","type":"address","internalType":"address"}],"outputs":[{"name":"","type":"bool","internalType":"bool"}],"stateMutability":"view"},{"type":"function","name":"isValid","inputs":[{"name":"tokenId","type":"uint256","internalType":"uint256"}],"outputs":[{"name":"","type":"bool","internalType":"bool"}],"stateMutability":"view"},{"type":"function","name":"issueDiploma","inputs":[{"name":"student","type":"address","internalType":"address"},{"name":"degreeTitle","type":"string","internalType":"string"},{"name":"major","type":"string","internalType":"string"},{"name":"credits","type":"uint256","internalType":"uint256"},{"name":"weightedAverage","type":"uint256","internalType":"uint256"}],"outputs":[],"stateMutability":"nonpayable"},{"type":"function","name":"ownerOf","inputs":[{"name":"tokenId","type":"uint256","internalType":"uint256"}],"outputs":[{"name":"","type":"address","internalType":"address"}],"stateMutability":"view"},{"type":"function","name":"s_balances","inputs":[{"name":"","type":"address","internalType":"address"}],"outputs":[{"name":"","type":"uint256","internalType":"uint256"}],"stateMutability":"view"},{"type":"function","name":"s_diplomaIdCounter","inputs":[],"outputs":[{"name":"","type":"uint256","internalType":"uint256"}],"stateMutability":"view"},{"type":"function","name":"s_diplomas","inputs":[{"name":"","type":"uint256","internalType":"uint256"}],"outputs":[{"name":"finalAverage","type":"uint256","internalType":"uint256"},{"name":"issueDate","type":"uint256","internalType":"uint256"},{"name":"degreeTitle","type":"string","internalType":"string"},{"name":"major","type":"string","internalType":"string"}],"stateMutability":"view"},{"type":"function","name":"s_owners","inputs":[{"name":"","type":"uint256","internalType":"uint256"}],"outputs":[{"name":"","type":"address","internalType":"address"}],"stateMutability":"view"},{"type":"function","name":"s_studentToDiplomaId","inputs":[{"name":"","type":"address","internalType":"address"}],"outputs":[{"name":"","type":"uint256","internalType":"uint256"}],"stateMutability":"view"},{"type":"function","name":"supportsInterface","inputs":[{"name":"interfaceId","type":"bytes4","internalType":"bytes4"}],"outputs":[{"name":"","type":"bool","internalType":"bool"}],"stateMutability":"view"},{"type":"event","name":"Minted","inputs":[{"name":"owner","type":"address","indexed":false,"internalType":"address"},{"name":"tokenId","type":"uint256","indexed":false,"internalType":"uint256"}],"anonymous":false},{"type":"event","name":"Revoked","inputs":[{"name":"owner","type":"address","indexed":false,"internalType":"address"},{"name":"tokenId","type":"uint256","indexed":false,"internalType":"uint256"}],"anonymous":false},{"type":"error","name":"Certification__AddressZero","inputs":[]},{"type":"error","name":"Certification__DiplomaDoesNotExist","inputs":[{"name":"tokenId","type":"uint256","internalType":"uint256"}]},{"type":"error","name":"Certification__NotCore","inputs":[{"name":"sender","type":"address","internalType":"address"}]},{"type":"error","name":"Certification__NotEnoughCredits","inputs":[{"name":"student","type":"address","internalType":"address"},{"name":"credits","type":"uint256","internalType":"uint256"}]}],"bytecode":{"object":"0x60a060405234801561000f575f5ffd5b5060405161162b38038061162b83398181016040528101906100319190610135565b5f73ffffffffffffffffffffffffffffffffffffffff168173ffffffffffffffffffffffffffffffffffffffff1603610096576040517ffe53482b00000000000000000000000000000000000000000000000000000000815260040160405180910390fd5b8073ffffffffffffffffffffffffffffffffffffffff1660808173ffffffffffffffffffffffffffffffffffffffff168152505060015f8190555050610160565b5f5ffd5b5f73ffffffffffffffffffffffffffffffffffffffff82169050919050565b5f610104826100db565b9050919050565b610114816100fa565b811461011e575f5ffd5b50565b5f8151905061012f8161010b565b92915050565b5f6020828403121561014a576101496100d7565b5b5f61015784828501610121565b91505092915050565b6080516114ac61017f5f395f818161084c015261096b01526114ac5ff3fe608060405234801561000f575f5ffd5b50600436106100f3575f3560e01c80636352211e1161009557806390b910b91161006457806390b910b9146102d5578063ab32eb69146102f3578063f577a50014610323578063f6caf71f14610353576100f3565b80636352211e1461023b5780636a6d4c001461026b57806370a08231146102895780637eb45cd7146102b9576100f3565b806338065917116100d1578063380659171461018a57806343945512146101ba5780634a7e4f9e146101ea5780635816a1b21461021d576100f3565b806301ffc9a7146100f757806318ded7d7146101275780632c88796c14610157575b5f5ffd5b610111600480360381019061010c9190610d78565b610383565b60405161011e9190610dbd565b60405180910390f35b610141600480360381019061013c9190610e30565b610454565b60405161014e9190610e73565b60405180910390f35b610171600480360381019061016c9190610eb6565b61049a565b6040516101819493929190610f51565b60405180910390f35b6101a4600480360381019061019f9190610e30565b6106b4565b6040516101b19190610e73565b60405180910390f35b6101d460048036038101906101cf9190610e30565b6106c9565b6040516101e19190610dbd565b60405180910390f35b61020460048036038101906101ff9190610eb6565b610711565b6040516102149493929190610f51565b60405180910390f35b610225610849565b6040516102329190610fb1565b60405180910390f35b61025560048036038101906102509190610eb6565b610870565b6040516102629190610fb1565b60405180910390f35b61027361091e565b6040516102809190610e73565b60405180910390f35b6102a3600480360381019061029e9190610e30565b610923565b6040516102b09190610e73565b60405180910390f35b6102d360048036038101906102ce919061102b565b610969565b005b6102dd610c69565b6040516102ea9190610e73565b60405180910390f35b61030d60048036038101906103089190610e30565b610c6e565b60405161031a9190610e73565b60405180910390f35b61033d60048036038101906103389190610eb6565b610c83565b60405161034a9190610dbd565b60405180910390f35b61036d60048036038101906103689190610eb6565b610ceb565b60405161037a9190610fb1565b60405180910390f35b5f7fa511533d000000000000000000000000000000000000000000000000000000007bffffffffffffffffffffffffffffffffffffffffffffffffffffffff1916827bffffffffffffffffffffffffffffffffffffffffffffffffffffffff1916148061044d57507f01ffc9a7000000000000000000000000000000000000000000000000000000007bffffffffffffffffffffffffffffffffffffffffffffffffffffffff1916827bffffffffffffffffffffffffffffffffffffffffffffffffffffffff1916145b9050919050565b5f60045f8373ffffffffffffffffffffffffffffffffffffffff1673ffffffffffffffffffffffffffffffffffffffff1681526020019081526020015f20549050919050565b5f5f6060805f73ffffffffffffffffffffffffffffffffffffffff1660025f8781526020019081526020015f205f9054906101000a900473ffffffffffffffffffffffffffffffffffffffff1673ffffffffffffffffffffffffffffffffffffffff160361053f57846040517f4119e8530000000000000000000000000000000000000000000000000000000081526004016105369190610e73565b60405180910390fd5b5f60015f8781526020019081526020015f206040518060800160405290815f82015481526020016001820154815260200160028201805461057f9061110f565b80601f01602080910402602001604051908101604052809291908181526020018280546105ab9061110f565b80156105f65780601f106105cd576101008083540402835291602001916105f6565b820191905f5260205f20905b8154815290600101906020018083116105d957829003601f168201915b5050505050815260200160038201805461060f9061110f565b80601f016020809104026020016040519081016040528092919081815260200182805461063b9061110f565b80156106865780601f1061065d57610100808354040283529160200191610686565b820191905f5260205f20905b81548152906001019060200180831161066957829003601f168201915b5050505050815250509050805f01518160200151826040015183606001519450945094509450509193509193565b6004602052805f5260405f205f915090505481565b5f5f60035f8473ffffffffffffffffffffffffffffffffffffffff1673ffffffffffffffffffffffffffffffffffffffff1681526020019081526020015f2054119050919050565b6001602052805f5260405f205f91509050805f01549080600101549080600201805461073c9061110f565b80601f01602080910402602001604051908101604052809291908181526020018280546107689061110f565b80156107b35780601f1061078a576101008083540402835291602001916107b3565b820191905f5260205f20905b81548152906001019060200180831161079657829003601f168201915b5050505050908060030180546107c89061110f565b80601f01602080910402602001604051908101604052809291908181526020018280546107f49061110f565b801561083f5780601f106108165761010080835404028352916020019161083f565b820191905f5260205f20905b81548152906001019060200180831161082257829003601f168201915b5050505050905084565b5f7f0000000000000000000000000000000000000000000000000000000000000000905090565b5f5f60025f8481526020019081526020015f205f9054906101000a900473ffffffffffffffffffffffffffffffffffffffff1690505f73ffffffffffffffffffffffffffffffffffffffff168173ffffffffffffffffffffffffffffffffffffffff160361091557826040517f4119e85300000000000000000000000000000000000000000000000000000000815260040161090c9190610e73565b60405180910390fd5b80915050919050565b60b481565b5f60035f8373ffffffffffffffffffffffffffffffffffffffff1673ffffffffffffffffffffffffffffffffffffffff1681526020019081526020015f20549050919050565b7f000000000000000000000000000000000000000000000000000000000000000073ffffffffffffffffffffffffffffffffffffffff163373ffffffffffffffffffffffffffffffffffffffff16146109f957336040517f6581dd500000000000000000000000000000000000000000000000000000000081526004016109f09190610fb1565b60405180910390fd5b60b4821015610a415786826040517f1eceda83000000000000000000000000000000000000000000000000000000008152600401610a3892919061113f565b60405180910390fd5b5f5f5f815480929190610a5390611193565b9190505590508760025f8381526020019081526020015f205f6101000a81548173ffffffffffffffffffffffffffffffffffffffff021916908373ffffffffffffffffffffffffffffffffffffffff160217905550600160035f8a73ffffffffffffffffffffffffffffffffffffffff1673ffffffffffffffffffffffffffffffffffffffff1681526020019081526020015f20819055508060045f8a73ffffffffffffffffffffffffffffffffffffffff1673ffffffffffffffffffffffffffffffffffffffff1681526020019081526020015f2081905550604051806080016040528083815260200142815260200188888080601f0160208091040260200160405190810160405280939291908181526020018383808284375f81840152601f19601f82011690508083019250505050505050815260200186868080601f0160208091040260200160405190810160405280939291908181526020018383808284375f81840152601f19601f8201169050808301925050505050505081525060015f8381526020019081526020015f205f820151815f0155602082015181600101556040820151816002019081610c0c91906113a7565b506060820151816003019081610c2291906113a7565b509050507f30385c845b448a36257a6a1716e6ad2e1bc2cbe333cde1e69fe849ad6511adfe8882604051610c5792919061113f565b60405180910390a15050505050505050565b5f5481565b6003602052805f5260405f205f915090505481565b5f5f73ffffffffffffffffffffffffffffffffffffffff1660025f8481526020019081526020015f205f9054906101000a900473ffffffffffffffffffffffffffffffffffffffff1673ffffffffffffffffffffffffffffffffffffffff1614159050919050565b6002602052805f5260405f205f915054906101000a900473ffffffffffffffffffffffffffffffffffffffff1681565b5f5ffd5b5f5ffd5b5f7fffffffff0000000000000000000000000000000000000000000000000000000082169050919050565b610d5781610d23565b8114610d61575f5ffd5b50565b5f81359050610d7281610d4e565b92915050565b5f60208284031215610d8d57610d8c610d1b565b5b5f610d9a84828501610d64565b91505092915050565b5f8115159050919050565b610db781610da3565b82525050565b5f602082019050610dd05f830184610dae565b92915050565b5f73ffffffffffffffffffffffffffffffffffffffff82169050919050565b5f610dff82610dd6565b9050919050565b610e0f81610df5565b8114610e19575f5ffd5b50565b5f81359050610e2a81610e06565b92915050565b5f60208284031215610e4557610e44610d1b565b5b5f610e5284828501610e1c565b91505092915050565b5f819050919050565b610e6d81610e5b565b82525050565b5f602082019050610e865f830184610e64565b92915050565b610e9581610e5b565b8114610e9f575f5ffd5b50565b5f81359050610eb081610e8c565b92915050565b5f60208284031215610ecb57610eca610d1b565b5b5f610ed884828501610ea2565b91505092915050565b5f81519050919050565b5f82825260208201905092915050565b8281835e5f83830152505050565b5f601f19601f8301169050919050565b5f610f2382610ee1565b610f2d8185610eeb565b9350610f3d818560208601610efb565b610f4681610f09565b840191505092915050565b5f608082019050610f645f830187610e64565b610f716020830186610e64565b8181036040830152610f838185610f19565b90508181036060830152610f978184610f19565b905095945050505050565b610fab81610df5565b82525050565b5f602082019050610fc45f830184610fa2565b92915050565b5f5ffd5b5f5ffd5b5f5ffd5b5f5f83601f840112610feb57610fea610fca565b5b8235905067ffffffffffffffff81111561100857611007610fce565b5b60208301915083600182028301111561102457611023610fd2565b5b9250929050565b5f5f5f5f5f5f5f60a0888a03121561104657611045610d1b565b5b5f6110538a828b01610e1c565b975050602088013567ffffffffffffffff81111561107457611073610d1f565b5b6110808a828b01610fd6565b9650965050604088013567ffffffffffffffff8111156110a3576110a2610d1f565b5b6110af8a828b01610fd6565b945094505060606110c28a828b01610ea2565b92505060806110d38a828b01610ea2565b91505092959891949750929550565b7f4e487b71000000000000000000000000000000000000000000000000000000005f52602260045260245ffd5b5f600282049050600182168061112657607f821691505b602082108103611139576111386110e2565b5b50919050565b5f6040820190506111525f830185610fa2565b61115f6020830184610e64565b9392505050565b7f4e487b71000000000000000000000000000000000000000000000000000000005f52601160045260245ffd5b5f61119d82610e5b565b91507fffffffffffffffffffffffffffffffffffffffffffffffffffffffffffffffff82036111cf576111ce611166565b5b600182019050919050565b7f4e487b71000000000000000000000000000000000000000000000000000000005f52604160045260245ffd5b5f819050815f5260205f209050919050565b5f6020601f8301049050919050565b5f82821b905092915050565b5f600883026112637fffffffffffffffffffffffffffffffffffffffffffffffffffffffffffffffff82611228565b61126d8683611228565b95508019841693508086168417925050509392505050565b5f819050919050565b5f6112a86112a361129e84610e5b565b611285565b610e5b565b9050919050565b5f819050919050565b6112c18361128e565b6112d56112cd826112af565b848454611234565b825550505050565b5f5f905090565b6112ec6112dd565b6112f78184846112b8565b505050565b5b8181101561131a5761130f5f826112e4565b6001810190506112fd565b5050565b601f82111561135f5761133081611207565b61133984611219565b81016020851015611348578190505b61135c61135485611219565b8301826112fc565b50505b505050565b5f82821c905092915050565b5f61137f5f1984600802611364565b1980831691505092915050565b5f6113978383611370565b9150826002028217905092915050565b6113b082610ee1565b67ffffffffffffffff8111156113c9576113c86111da565b5b6113d3825461110f565b6113de82828561131e565b5f60209050601f83116001811461140f575f84156113fd578287015190505b611407858261138c565b86555061146e565b601f19841661141d86611207565b5f5b828110156114445784890151825560018201915060208501945060208101905061141f565b86831015611461578489015161145d601f891682611370565b8355505b6001600288020188555050505b50505050505056fea26469706673582212206c7a2653afa6f465641bb73b668193cd408b43ff6769bb14e67a1cf7e472ca1a64736f6c634300081e0033","linkReferences":{}},"methodIdentifiers":{"CREDITS_REQUIRED_FOR_GRADUATION()":"6a6d4c00","balanceOf(address)":"70a08231","getDiplomaIdForStudent(address)":"18ded7d7","getDiplomaMetadata(uint256)":"2c88796c","getUniversityCoreContract()":"5816a1b2","hasValid(address)":"43945512","isValid(uint256)":"f577a500","issueDiploma(address,string,string,uint256,uint256)":"7eb45cd7","ownerOf(uint256)":"6352211e","s_balances(address)":"ab32eb69","s_diplomaIdCounter()":"90b910b9","s_diplomas(uint256)":"4a7e4f9e","s_owners(uint256)":"f6caf71f","s_studentToDiplomaId(address)":"38065917","supportsInterface(bytes4)":"01ffc9a7"},"id":26}