{"abi":[{"type":"constructor","inputs":[{"name":"coreContract","type":"address","internalType":"address"}],"stateMutability":"nonpayable"},{"type":"function","name":"CREDITS_REQUIRED_FOR_GRADUATION","inputs":[],"outputs":[{"name":"","type":"uint256","internalType":"uint256"}],"stateMutability":"view"},{"type":"function","name":"balanceOf","inputs":[{"name":"owner","type":"address","internalType":"address"}],"outputs":[{"name":"","type":"uint256","internalType":"uint256"}],"stateMutability":"view"},{"type":"function","name":"getDiplomaMetadata","inputs":[{"name":"tokenId","type":"uint256","internalType":"uint256"}],"outputs":[{"name":"","type":"uint256","internalType":"uint256"},{"name":"","type":"uint256","internalType":"uint256"},{"name":"","type":"string","internalType":"string"},{"name":"","type":"string","internalType":"string"}],"stateMutability":"view"},{"type":"function","name":"getUniversityCoreContract","inputs":[],"outputs":[{"name":"","type":"address","internalType":"address"}],"stateMutability":"view"},{"type":"function","name":"hasValid","inputs":[{"name":"owner","type":"address","internalType":"address"}],"outputs":[{"name":"","type":"bool","internalType":"bool"}],"stateMutability":"view"},{"type":"function","name":"isValid","inputs":[{"name":"tokenId","type":"uint256","internalType":"uint256"}],"outputs":[{"name":"","type":"bool","internalType":"bool"}],"stateMutability":"view"},{"type":"function","name":"issueDiploma","inputs":[{"name":"student","type":"address","internalType":"address"},{"name":"degreeTitle","type":"string","internalType":"string"},{"name":"major","type":"string","internalType":"string"},{"name":"credits","type":"uint256","internalType":"uint256"},{"name":"weightedAverage","type":"uint256","internalType":"uint256"}],"outputs":[],"stateMutability":"nonpayable"},{"type":"function","name":"ownerOf","inputs":[{"name":"tokenId","type":"uint256","internalType":"uint256"}],"outputs":[{"name":"","type":"address","internalType":"address"}],"stateMutability":"view"},{"type":"function","name":"s_balances","inputs":[{"name":"","type":"address","internalType":"address"}],"outputs":[{"name":"","type":"uint256","internalType":"uint256"}],"stateMutability":"view"},{"type":"function","name":"s_diplomaIdCounter","inputs":[],"outputs":[{"name":"","type":"uint256","internalType":"uint256"}],"stateMutability":"view"},{"type":"function","name":"s_diplomas","inputs":[{"name":"","type":"uint256","internalType":"uint256"}],"outputs":[{"name":"finalAverage","type":"uint256","internalType":"uint256"},{"name":"issueDate","type":"uint256","internalType":"uint256"},{"name":"degreeTitle","type":"string","internalType":"string"},{"name":"major","type":"string","internalType":"string"}],"stateMutability":"view"},{"type":"function","name":"s_owners","inputs":[{"name":"","type":"uint256","internalType":"uint256"}],"outputs":[{"name":"","type":"address","internalType":"address"}],"stateMutability":"view"},{"type":"function","name":"s_studentToDiplomaId","inputs":[{"name":"","type":"address","internalType":"address"}],"outputs":[{"name":"","type":"uint256","internalType":"uint256"}],"stateMutability":"view"},{"type":"function","name":"supportsInterface","inputs":[{"name":"interfaceId","type":"bytes4","internalType":"bytes4"}],"outputs":[{"name":"","type":"bool","internalType":"bool"}],"stateMutability":"view"},{"type":"event","name":"Minted","inputs":[{"name":"owner","type":"address","indexed":false,"internalType":"address"},{"name":"tokenId","type":"uint256","indexed":false,"internalType":"uint256"}],"anonymous":false},{"type":"event","name":"Revoked","inputs":[{"name":"owner","type":"address","indexed":false,"internalType":"address"},{"name":"tokenId","type":"uint256","indexed":false,"internalType":"uint256"}],"anonymous":false},{"type":"error","name":"Certification__AddressZero","inputs":[]},{"type":"error","name":"Certification__DiplomaDoesNotExist","inputs":[{"name":"tokenId","type":"uint256","internalType":"uint256"}]},{"type":"error","name":"Certification__NotCore","inputs":[{"name":"sender","type":"address","internalType":"address"}]},{"type":"error","name":"Certification__NotEnoughCredits","inputs":[{"name":"student","type":"address","internalType":"address"},{"name":"credits","type":"uint256","internalType":"uint256"}]}],"bytecode":{"object":"0x60a060405234801561000f575f5ffd5b506040516115aa3803806115aa83398181016040528101906100319190610135565b5f73ffffffffffffffffffffffffffffffffffffffff168173ffffffffffffffffffffffffffffffffffffffff1603610096576040517ffe53482b00000000000000000000000000000000000000000000000000000000815260040160405180910390fd5b8073ffffffffffffffffffffffffffffffffffffffff1660808173ffffffffffffffffffffffffffffffffffffffff168152505060015f8190555050610160565b5f5ffd5b5f73ffffffffffffffffffffffffffffffffffffffff82169050919050565b5f610104826100db565b9050919050565b610114816100fa565b811461011e575f5ffd5b50565b5f8151905061012f8161010b565b92915050565b5f6020828403121561014a576101496100d7565b5b5f61015784828501610121565b91505092915050565b60805161142b61017f5f395f81816107cb01526108ea015261142b5ff3fe608060405234801561000f575f5ffd5b50600436106100e8575f3560e01c80636a6d4c001161008a57806390b910b91161006457806390b910b91461029a578063ab32eb69146102b8578063f577a500146102e8578063f6caf71f14610318576100e8565b80636a6d4c001461023057806370a082311461024e5780637eb45cd71461027e576100e8565b806343945512116100c6578063439455121461017f5780634a7e4f9e146101af5780635816a1b2146101e25780636352211e14610200576100e8565b806301ffc9a7146100ec5780632c88796c1461011c578063380659171461014f575b5f5ffd5b61010660048036038101906101019190610cf7565b610348565b6040516101139190610d3c565b60405180910390f35b61013660048036038101906101319190610d88565b610419565b6040516101469493929190610e32565b60405180910390f35b61016960048036038101906101649190610edd565b610633565b6040516101769190610f08565b60405180910390f35b61019960048036038101906101949190610edd565b610648565b6040516101a69190610d3c565b60405180910390f35b6101c960048036038101906101c49190610d88565b610690565b6040516101d99493929190610e32565b60405180910390f35b6101ea6107c8565b6040516101f79190610f30565b60405180910390f35b61021a60048036038101906102159190610d88565b6107ef565b6040516102279190610f30565b60405180910390f35b61023861089d565b6040516102459190610f08565b60405180910390f35b61026860048036038101906102639190610edd565b6108a2565b6040516102759190610f08565b60405180910390f35b61029860048036038101906102939190610faa565b6108e8565b005b6102a2610be8565b6040516102af9190610f08565b60405180910390f35b6102d260048036038101906102cd9190610edd565b610bed565b6040516102df9190610f08565b60405180910390f35b61030260048036038101906102fd9190610d88565b610c02565b60405161030f9190610d3c565b60405180910390f35b610332600480360381019061032d9190610d88565b610c6a565b60405161033f9190610f30565b60405180910390f35b5f7fa511533d000000000000000000000000000000000000000000000000000000007bffffffffffffffffffffffffffffffffffffffffffffffffffffffff1916827bffffffffffffffffffffffffffffffffffffffffffffffffffffffff1916148061041257507f01ffc9a7000000000000000000000000000000000000000000000000000000007bffffffffffffffffffffffffffffffffffffffffffffffffffffffff1916827bffffffffffffffffffffffffffffffffffffffffffffffffffffffff1916145b9050919050565b5f5f6060805f73ffffffffffffffffffffffffffffffffffffffff1660025f8781526020019081526020015f205f9054906101000a900473ffffffffffffffffffffffffffffffffffffffff1673ffffffffffffffffffffffffffffffffffffffff16036104be57846040517f4119e8530000000000000000000000000000000000000000000000000000000081526004016104b59190610f08565b60405180910390fd5b5f60015f8781526020019081526020015f206040518060800160405290815f8201548152602001600182015481526020016002820180546104fe9061108e565b80601f016020809104026020016040519081016040528092919081815260200182805461052a9061108e565b80156105755780601f1061054c57610100808354040283529160200191610575565b820191905f5260205f20905b81548152906001019060200180831161055857829003601f168201915b5050505050815260200160038201805461058e9061108e565b80601f01602080910402602001604051908101604052809291908181526020018280546105ba9061108e565b80156106055780601f106105dc57610100808354040283529160200191610605565b820191905f5260205f20905b8154815290600101906020018083116105e857829003601f168201915b5050505050815250509050805f01518160200151826040015183606001519450945094509450509193509193565b6004602052805f5260405f205f915090505481565b5f5f60035f8473ffffffffffffffffffffffffffffffffffffffff1673ffffffffffffffffffffffffffffffffffffffff1681526020019081526020015f2054119050919050565b6001602052805f5260405f205f91509050805f0154908060010154908060020180546106bb9061108e565b80601f01602080910402602001604051908101604052809291908181526020018280546106e79061108e565b80156107325780601f1061070957610100808354040283529160200191610732565b820191905f5260205f20905b81548152906001019060200180831161071557829003601f168201915b5050505050908060030180546107479061108e565b80601f01602080910402602001604051908101604052809291908181526020018280546107739061108e565b80156107be5780601f10610795576101008083540402835291602001916107be565b820191905f5260205f20905b8154815290600101906020018083116107a157829003601f168201915b5050505050905084565b5f7f0000000000000000000000000000000000000000000000000000000000000000905090565b5f5f60025f8481526020019081526020015f205f9054906101000a900473ffffffffffffffffffffffffffffffffffffffff1690505f73ffffffffffffffffffffffffffffffffffffffff168173ffffffffffffffffffffffffffffffffffffffff160361089457826040517f4119e85300000000000000000000000000000000000000000000000000000000815260040161088b9190610f08565b60405180910390fd5b80915050919050565b60b481565b5f60035f8373ffffffffffffffffffffffffffffffffffffffff1673ffffffffffffffffffffffffffffffffffffffff1681526020019081526020015f20549050919050565b7f000000000000000000000000000000000000000000000000000000000000000073ffffffffffffffffffffffffffffffffffffffff163373ffffffffffffffffffffffffffffffffffffffff161461097857336040517f6581dd5000000000000000000000000000000000000000000000000000000000815260040161096f9190610f30565b60405180910390fd5b60b48210156109c05786826040517f1eceda830000000000000000000000000000000000000000000000000000000081526004016109b79291906110be565b60405180910390fd5b5f5f5f8154809291906109d290611112565b9190505590508760025f8381526020019081526020015f205f6101000a81548173ffffffffffffffffffffffffffffffffffffffff021916908373ffffffffffffffffffffffffffffffffffffffff160217905550600160035f8a73ffffffffffffffffffffffffffffffffffffffff1673ffffffffffffffffffffffffffffffffffffffff1681526020019081526020015f20819055508060045f8a73ffffffffffffffffffffffffffffffffffffffff1673ffffffffffffffffffffffffffffffffffffffff1681526020019081526020015f2081905550604051806080016040528083815260200142815260200188888080601f0160208091040260200160405190810160405280939291908181526020018383808284375f81840152601f19601f82011690508083019250505050505050815260200186868080601f0160208091040260200160405190810160405280939291908181526020018383808284375f81840152601f19601f8201169050808301925050505050505081525060015f8381526020019081526020015f205f820151815f0155602082015181600101556040820151816002019081610b8b9190611326565b506060820151816003019081610ba19190611326565b509050507f30385c845b448a36257a6a1716e6ad2e1bc2cbe333cde1e69fe849ad6511adfe8882604051610bd69291906110be565b60405180910390a15050505050505050565b5f5481565b6003602052805f5260405f205f915090505481565b5f5f73ffffffffffffffffffffffffffffffffffffffff1660025f8481526020019081526020015f205f9054906101000a900473ffffffffffffffffffffffffffffffffffffffff1673ffffffffffffffffffffffffffffffffffffffff1614159050919050565b6002602052805f5260405f205f915054906101000a900473ffffffffffffffffffffffffffffffffffffffff1681565b5f5ffd5b5f5ffd5b5f7fffffffff0000000000000000000000000000000000000000000000000000000082169050919050565b610cd681610ca2565b8114610ce0575f5ffd5b50565b5f81359050610cf181610ccd565b92915050565b5f60208284031215610d0c57610d0b610c9a565b5b5f610d1984828501610ce3565b91505092915050565b5f8115159050919050565b610d3681610d22565b82525050565b5f602082019050610d4f5f830184610d2d565b92915050565b5f819050919050565b610d6781610d55565b8114610d71575f5ffd5b50565b5f81359050610d8281610d5e565b92915050565b5f60208284031215610d9d57610d9c610c9a565b5b5f610daa84828501610d74565b91505092915050565b610dbc81610d55565b82525050565b5f81519050919050565b5f82825260208201905092915050565b8281835e5f83830152505050565b5f601f19601f8301169050919050565b5f610e0482610dc2565b610e0e8185610dcc565b9350610e1e818560208601610ddc565b610e2781610dea565b840191505092915050565b5f608082019050610e455f830187610db3565b610e526020830186610db3565b8181036040830152610e648185610dfa565b90508181036060830152610e788184610dfa565b905095945050505050565b5f73ffffffffffffffffffffffffffffffffffffffff82169050919050565b5f610eac82610e83565b9050919050565b610ebc81610ea2565b8114610ec6575f5ffd5b50565b5f81359050610ed781610eb3565b92915050565b5f60208284031215610ef257610ef1610c9a565b5b5f610eff84828501610ec9565b91505092915050565b5f602082019050610f1b5f830184610db3565b92915050565b610f2a81610ea2565b82525050565b5f602082019050610f435f830184610f21565b92915050565b5f5ffd5b5f5ffd5b5f5ffd5b5f5f83601f840112610f6a57610f69610f49565b5b8235905067ffffffffffffffff811115610f8757610f86610f4d565b5b602083019150836001820283011115610fa357610fa2610f51565b5b9250929050565b5f5f5f5f5f5f5f60a0888a031215610fc557610fc4610c9a565b5b5f610fd28a828b01610ec9565b975050602088013567ffffffffffffffff811115610ff357610ff2610c9e565b5b610fff8a828b01610f55565b9650965050604088013567ffffffffffffffff81111561102257611021610c9e565b5b61102e8a828b01610f55565b945094505060606110418a828b01610d74565b92505060806110528a828b01610d74565b91505092959891949750929550565b7f4e487b71000000000000000000000000000000000000000000000000000000005f52602260045260245ffd5b5f60028204905060018216806110a557607f821691505b6020821081036110b8576110b7611061565b5b50919050565b5f6040820190506110d15f830185610f21565b6110de6020830184610db3565b9392505050565b7f4e487b71000000000000000000000000000000000000000000000000000000005f52601160045260245ffd5b5f61111c82610d55565b91507fffffffffffffffffffffffffffffffffffffffffffffffffffffffffffffffff820361114e5761114d6110e5565b5b600182019050919050565b7f4e487b71000000000000000000000000000000000000000000000000000000005f52604160045260245ffd5b5f819050815f5260205f209050919050565b5f6020601f8301049050919050565b5f82821b905092915050565b5f600883026111e27fffffffffffffffffffffffffffffffffffffffffffffffffffffffffffffffff826111a7565b6111ec86836111a7565b95508019841693508086168417925050509392505050565b5f819050919050565b5f61122761122261121d84610d55565b611204565b610d55565b9050919050565b5f819050919050565b6112408361120d565b61125461124c8261122e565b8484546111b3565b825550505050565b5f5f905090565b61126b61125c565b611276818484611237565b505050565b5b818110156112995761128e5f82611263565b60018101905061127c565b5050565b601f8211156112de576112af81611186565b6112b884611198565b810160208510156112c7578190505b6112db6112d385611198565b83018261127b565b50505b505050565b5f82821c905092915050565b5f6112fe5f19846008026112e3565b1980831691505092915050565b5f61131683836112ef565b9150826002028217905092915050565b61132f82610dc2565b67ffffffffffffffff81111561134857611347611159565b5b611352825461108e565b61135d82828561129d565b5f60209050601f83116001811461138e575f841561137c578287015190505b611386858261130b565b8655506113ed565b601f19841661139c86611186565b5f5b828110156113c35784890151825560018201915060208501945060208101905061139e565b868310156113e057848901516113dc601f8916826112ef565b8355505b6001600288020188555050505b50505050505056fea2646970667358221220fbd82aec9da23833d6a4516740d0ebc3deefa6495324e147b3698d94e8d953a564736f6c634300081e0033","linkReferences":{}},"methodIdentifiers":{"CREDITS_REQUIRED_FOR_GRADUATION()":"6a6d4c00","balanceOf(address)":"70a08231","getDiplomaMetadata(uint256)":"2c88796c","getUniversityCoreContract()":"5816a1b2","hasValid(address)":"43945512","isValid(uint256)":"f577a500","issueDiploma(address,string,string,uint256,uint256)":"7eb45cd7","ownerOf(uint256)":"6352211e","s_balances(address)":"ab32eb69","s_diplomaIdCounter()":"90b910b9","s_diplomas(uint256)":"4a7e4f9e","s_owners(uint256)":"f6caf71f","s_studentToDiplomaId(address)":"38065917","supportsInterface(bytes4)":"01ffc9a7"},"id":24}