{"abi":[{"type":"constructor","inputs":[{"name":"coreContract","type":"address","internalType":"address"}],"stateMutability":"nonpayable"},{"type":"function","name":"balanceOf","inputs":[{"name":"owner","type":"address","internalType":"address"}],"outputs":[{"name":"","type":"uint256","internalType":"uint256"}],"stateMutability":"view"},{"type":"function","name":"enrollStudent","inputs":[{"name":"student","type":"address","internalType":"address"},{"name":"faculty","type":"string","internalType":"string"},{"name":"registrationNumber","type":"string","internalType":"string"}],"outputs":[],"stateMutability":"nonpayable"},{"type":"function","name":"getStudentMetadata","inputs":[{"name":"student","type":"address","internalType":"address"}],"outputs":[{"name":"","type":"uint256","internalType":"uint256"},{"name":"","type":"string","internalType":"string"},{"name":"","type":"string","internalType":"string"},{"name":"","type":"bool","internalType":"bool"}],"stateMutability":"view"},{"type":"function","name":"getUniversityCoreContract","inputs":[],"outputs":[{"name":"","type":"address","internalType":"address"}],"stateMutability":"view"},{"type":"function","name":"hasValid","inputs":[{"name":"owner","type":"address","internalType":"address"}],"outputs":[{"name":"","type":"bool","internalType":"bool"}],"stateMutability":"view"},{"type":"function","name":"isValid","inputs":[{"name":"tokenId","type":"uint256","internalType":"uint256"}],"outputs":[{"name":"","type":"bool","internalType":"bool"}],"stateMutability":"view"},{"type":"function","name":"ownerOf","inputs":[{"name":"tokenId","type":"uint256","internalType":"uint256"}],"outputs":[{"name":"","type":"address","internalType":"address"}],"stateMutability":"view"},{"type":"function","name":"revoke","inputs":[{"name":"tokenId","type":"uint256","internalType":"uint256"}],"outputs":[],"stateMutability":"nonpayable"},{"type":"function","name":"s_balances","inputs":[{"name":"student","type":"address","internalType":"address"}],"outputs":[{"name":"balance","type":"uint256","internalType":"uint256"}],"stateMutability":"view"},{"type":"function","name":"s_owners","inputs":[{"name":"tokenId","type":"uint256","internalType":"uint256"}],"outputs":[{"name":"student","type":"address","internalType":"address"}],"stateMutability":"view"},{"type":"function","name":"s_studentToTokenId","inputs":[{"name":"student","type":"address","internalType":"address"}],"outputs":[{"name":"tokenId","type":"uint256","internalType":"uint256"}],"stateMutability":"view"},{"type":"function","name":"s_students","inputs":[{"name":"tokenId","type":"uint256","internalType":"uint256"}],"outputs":[{"name":"registrationDate","type":"uint256","internalType":"uint256"},{"name":"faculty","type":"string","internalType":"string"},{"name":"registrationNumber","type":"string","internalType":"string"},{"name":"revoked","type":"bool","internalType":"bool"}],"stateMutability":"view"},{"type":"function","name":"s_tokenIdCounter","inputs":[],"outputs":[{"name":"","type":"uint256","internalType":"uint256"}],"stateMutability":"view"},{"type":"function","name":"supportsInterface","inputs":[{"name":"interfaceId","type":"bytes4","internalType":"bytes4"}],"outputs":[{"name":"","type":"bool","internalType":"bool"}],"stateMutability":"view"},{"type":"event","name":"Minted","inputs":[{"name":"owner","type":"address","indexed":false,"internalType":"address"},{"name":"tokenId","type":"uint256","indexed":false,"internalType":"uint256"}],"anonymous":false},{"type":"event","name":"Revoked","inputs":[{"name":"owner","type":"address","indexed":false,"internalType":"address"},{"name":"tokenId","type":"uint256","indexed":false,"internalType":"uint256"}],"anonymous":false},{"type":"error","name":"StudentRegistry__AddressZero","inputs":[]},{"type":"error","name":"StudentRegistry__InvalidTokenId","inputs":[{"name":"tokenId","type":"uint256","internalType":"uint256"}]},{"type":"error","name":"StudentRegistry__NotCore","inputs":[{"name":"sender","type":"address","internalType":"address"}]},{"type":"error","name":"StudentRegistry__StudentAlreadyEnrolled","inputs":[{"name":"student","type":"address","internalType":"address"}]},{"type":"error","name":"StudentRegistry__StudentNotEnrolled","inputs":[{"name":"student","type":"address","internalType":"address"}]}],"bytecode":{"object":"0x60a060405234801561000f575f5ffd5b5060405161183138038061183183398181016040528101906100319190610135565b5f73ffffffffffffffffffffffffffffffffffffffff168173ffffffffffffffffffffffffffffffffffffffff1603610096576040517ffcdb85a000000000000000000000000000000000000000000000000000000000815260040160405180910390fd5b8073ffffffffffffffffffffffffffffffffffffffff1660808173ffffffffffffffffffffffffffffffffffffffff168152505060015f8190555050610160565b5f5ffd5b5f73ffffffffffffffffffffffffffffffffffffffff82169050919050565b5f610104826100db565b9050919050565b610114816100fa565b811461011e575f5ffd5b50565b5f8151905061012f8161010b565b92915050565b5f6020828403121561014a576101496100d7565b5b5f61015784828501610121565b91505092915050565b6080516116ab6101865f395f818161055d015281816109720152610a8c01526116ab5ff3fe608060405234801561000f575f5ffd5b50600436106100e8575f3560e01c80636352211e1161008a57806382d8a1181161006457806382d8a11814610298578063ab32eb69146102b6578063f577a500146102e6578063f6caf71f14610316576100e8565b80636352211e1461021c57806370a082311461024c5780637d853e7f1461027c576100e8565b806321ff53b7116100c657806321ff53b71461016b57806322ecfc3c1461019b57806343945512146101ce5780635816a1b2146101fe576100e8565b806301ffc9a7146100ec57806304b9e29f1461011c57806320c5429b1461014f575b5f5ffd5b61010660048036038101906101019190610f08565b610346565b6040516101139190610f4d565b60405180910390f35b61013660048036038101906101319190610f99565b610417565b6040516101469493929190611043565b60405180910390f35b61016960048036038101906101649190610f99565b61055b565b005b610185600480360381019061018091906110ee565b6106f7565b6040516101929190611119565b60405180910390f35b6101b560048036038101906101b091906110ee565b61070c565b6040516101c59493929190611043565b60405180910390f35b6101e860048036038101906101e391906110ee565b61091c565b6040516101f59190610f4d565b60405180910390f35b61020661096f565b6040516102139190611141565b60405180910390f35b61023660048036038101906102319190610f99565b610996565b6040516102439190611141565b60405180910390f35b610266600480360381019061026191906110ee565b610a44565b6040516102739190611119565b60405180910390f35b61029660048036038101906102919190611286565b610a8a565b005b6102a0610db5565b6040516102ad9190611119565b60405180910390f35b6102d060048036038101906102cb91906110ee565b610dba565b6040516102dd9190611119565b60405180910390f35b61030060048036038101906102fb9190610f99565b610dcf565b60405161030d9190610f4d565b60405180910390f35b610330600480360381019061032b9190610f99565b610de0565b60405161033d9190611141565b60405180910390f35b5f7fa511533d000000000000000000000000000000000000000000000000000000007bffffffffffffffffffffffffffffffffffffffffffffffffffffffff1916827bffffffffffffffffffffffffffffffffffffffffffffffffffffffff1916148061041057507f01ffc9a7000000000000000000000000000000000000000000000000000000007bffffffffffffffffffffffffffffffffffffffffffffffffffffffff1916827bffffffffffffffffffffffffffffffffffffffffffffffffffffffff1916145b9050919050565b6001602052805f5260405f205f91509050805f01549080600101805461043c9061133b565b80601f01602080910402602001604051908101604052809291908181526020018280546104689061133b565b80156104b35780601f1061048a576101008083540402835291602001916104b3565b820191905f5260205f20905b81548152906001019060200180831161049657829003601f168201915b5050505050908060020180546104c89061133b565b80601f01602080910402602001604051908101604052809291908181526020018280546104f49061133b565b801561053f5780601f106105165761010080835404028352916020019161053f565b820191905f5260205f20905b81548152906001019060200180831161052257829003601f168201915b505050505090806003015f9054906101000a900460ff16905084565b7f000000000000000000000000000000000000000000000000000000000000000073ffffffffffffffffffffffffffffffffffffffff163373ffffffffffffffffffffffffffffffffffffffff16146105eb57336040517fc1bf86a70000000000000000000000000000000000000000000000000000000081526004016105e29190611141565b60405180910390fd5b5f60025f8381526020019081526020015f205f9054906101000a900473ffffffffffffffffffffffffffffffffffffffff1690505f73ffffffffffffffffffffffffffffffffffffffff168173ffffffffffffffffffffffffffffffffffffffff160361068f57816040517fbf3da0010000000000000000000000000000000000000000000000000000000081526004016106869190611119565b60405180910390fd5b6001805f8481526020019081526020015f206003015f6101000a81548160ff0219169083151502179055507f713b90881ad62c4fa8ab6bd9197fa86481fc0c11b2edba60026514281b2dbac481836040516106eb92919061136b565b60405180910390a15050565b6004602052805f5260405f205f915090505481565b5f6060805f5f60045f8773ffffffffffffffffffffffffffffffffffffffff1673ffffffffffffffffffffffffffffffffffffffff1681526020019081526020015f205490505f810361079657856040517fe308e46e00000000000000000000000000000000000000000000000000000000815260040161078d9190611141565b60405180910390fd5b5f60015f8381526020019081526020015f206040518060800160405290815f82015481526020016001820180546107cc9061133b565b80601f01602080910402602001604051908101604052809291908181526020018280546107f89061133b565b80156108435780601f1061081a57610100808354040283529160200191610843565b820191905f5260205f20905b81548152906001019060200180831161082657829003601f168201915b5050505050815260200160028201805461085c9061133b565b80601f01602080910402602001604051908101604052809291908181526020018280546108889061133b565b80156108d35780601f106108aa576101008083540402835291602001916108d3565b820191905f5260205f20905b8154815290600101906020018083116108b657829003601f168201915b50505050508152602001600382015f9054906101000a900460ff1615151515815250509050805f0151816020015182604001518360600151955095509550955050509193509193565b5f5f60045f8473ffffffffffffffffffffffffffffffffffffffff1673ffffffffffffffffffffffffffffffffffffffff1681526020019081526020015f2054905061096781610e10565b915050919050565b5f7f0000000000000000000000000000000000000000000000000000000000000000905090565b5f5f60025f8481526020019081526020015f205f9054906101000a900473ffffffffffffffffffffffffffffffffffffffff1690505f73ffffffffffffffffffffffffffffffffffffffff168173ffffffffffffffffffffffffffffffffffffffff1603610a3b57826040517fbf3da001000000000000000000000000000000000000000000000000000000008152600401610a329190611119565b60405180910390fd5b80915050919050565b5f60035f8373ffffffffffffffffffffffffffffffffffffffff1673ffffffffffffffffffffffffffffffffffffffff1681526020019081526020015f20549050919050565b7f000000000000000000000000000000000000000000000000000000000000000073ffffffffffffffffffffffffffffffffffffffff163373ffffffffffffffffffffffffffffffffffffffff1614610b1a57336040517fc1bf86a7000000000000000000000000000000000000000000000000000000008152600401610b119190611141565b60405180910390fd5b5f73ffffffffffffffffffffffffffffffffffffffff168373ffffffffffffffffffffffffffffffffffffffff1603610b7f576040517ffcdb85a000000000000000000000000000000000000000000000000000000000815260040160405180910390fd5b5f60035f8573ffffffffffffffffffffffffffffffffffffffff1673ffffffffffffffffffffffffffffffffffffffff1681526020019081526020015f205414610c0057826040517fdf921ae4000000000000000000000000000000000000000000000000000000008152600401610bf79190611141565b60405180910390fd5b5f5f5f815480929190610c12906113bf565b9190505590508360025f8381526020019081526020015f205f6101000a81548173ffffffffffffffffffffffffffffffffffffffff021916908373ffffffffffffffffffffffffffffffffffffffff160217905550600160035f8673ffffffffffffffffffffffffffffffffffffffff1673ffffffffffffffffffffffffffffffffffffffff1681526020019081526020015f20819055508060045f8673ffffffffffffffffffffffffffffffffffffffff1673ffffffffffffffffffffffffffffffffffffffff1681526020019081526020015f208190555060405180608001604052804281526020018481526020018381526020015f151581525060015f8381526020019081526020015f205f820151815f01556020820151816001019081610d3d91906115a6565b506040820151816002019081610d5391906115a6565b506060820151816003015f6101000a81548160ff0219169083151502179055509050507f30385c845b448a36257a6a1716e6ad2e1bc2cbe333cde1e69fe849ad6511adfe8482604051610da792919061136b565b60405180910390a150505050565b5f5481565b6003602052805f5260405f205f915090505481565b5f610dd982610e10565b9050919050565b6002602052805f5260405f205f915054906101000a900473ffffffffffffffffffffffffffffffffffffffff1681565b5f5f73ffffffffffffffffffffffffffffffffffffffff1660025f8481526020019081526020015f205f9054906101000a900473ffffffffffffffffffffffffffffffffffffffff1673ffffffffffffffffffffffffffffffffffffffff1614158015610e9b575060015f8381526020019081526020015f206003015f9054906101000a900460ff16155b9050919050565b5f604051905090565b5f5ffd5b5f5ffd5b5f7fffffffff0000000000000000000000000000000000000000000000000000000082169050919050565b610ee781610eb3565b8114610ef1575f5ffd5b50565b5f81359050610f0281610ede565b92915050565b5f60208284031215610f1d57610f1c610eab565b5b5f610f2a84828501610ef4565b91505092915050565b5f8115159050919050565b610f4781610f33565b82525050565b5f602082019050610f605f830184610f3e565b92915050565b5f819050919050565b610f7881610f66565b8114610f82575f5ffd5b50565b5f81359050610f9381610f6f565b92915050565b5f60208284031215610fae57610fad610eab565b5b5f610fbb84828501610f85565b91505092915050565b610fcd81610f66565b82525050565b5f81519050919050565b5f82825260208201905092915050565b8281835e5f83830152505050565b5f601f19601f8301169050919050565b5f61101582610fd3565b61101f8185610fdd565b935061102f818560208601610fed565b61103881610ffb565b840191505092915050565b5f6080820190506110565f830187610fc4565b8181036020830152611068818661100b565b9050818103604083015261107c818561100b565b905061108b6060830184610f3e565b95945050505050565b5f73ffffffffffffffffffffffffffffffffffffffff82169050919050565b5f6110bd82611094565b9050919050565b6110cd816110b3565b81146110d7575f5ffd5b50565b5f813590506110e8816110c4565b92915050565b5f6020828403121561110357611102610eab565b5b5f611110848285016110da565b91505092915050565b5f60208201905061112c5f830184610fc4565b92915050565b61113b816110b3565b82525050565b5f6020820190506111545f830184611132565b92915050565b5f5ffd5b5f5ffd5b7f4e487b71000000000000000000000000000000000000000000000000000000005f52604160045260245ffd5b61119882610ffb565b810181811067ffffffffffffffff821117156111b7576111b6611162565b5b80604052505050565b5f6111c9610ea2565b90506111d5828261118f565b919050565b5f67ffffffffffffffff8211156111f4576111f3611162565b5b6111fd82610ffb565b9050602081019050919050565b828183375f83830152505050565b5f61122a611225846111da565b6111c0565b9050828152602081018484840111156112465761124561115e565b5b61125184828561120a565b509392505050565b5f82601f83011261126d5761126c61115a565b5b813561127d848260208601611218565b91505092915050565b5f5f5f6060848603121561129d5761129c610eab565b5b5f6112aa868287016110da565b935050602084013567ffffffffffffffff8111156112cb576112ca610eaf565b5b6112d786828701611259565b925050604084013567ffffffffffffffff8111156112f8576112f7610eaf565b5b61130486828701611259565b9150509250925092565b7f4e487b71000000000000000000000000000000000000000000000000000000005f52602260045260245ffd5b5f600282049050600182168061135257607f821691505b6020821081036113655761136461130e565b5b50919050565b5f60408201905061137e5f830185611132565b61138b6020830184610fc4565b9392505050565b7f4e487b71000000000000000000000000000000000000000000000000000000005f52601160045260245ffd5b5f6113c982610f66565b91507fffffffffffffffffffffffffffffffffffffffffffffffffffffffffffffffff82036113fb576113fa611392565b5b600182019050919050565b5f819050815f5260205f209050919050565b5f6020601f8301049050919050565b5f82821b905092915050565b5f600883026114627fffffffffffffffffffffffffffffffffffffffffffffffffffffffffffffffff82611427565b61146c8683611427565b95508019841693508086168417925050509392505050565b5f819050919050565b5f6114a76114a261149d84610f66565b611484565b610f66565b9050919050565b5f819050919050565b6114c08361148d565b6114d46114cc826114ae565b848454611433565b825550505050565b5f5f905090565b6114eb6114dc565b6114f68184846114b7565b505050565b5b818110156115195761150e5f826114e3565b6001810190506114fc565b5050565b601f82111561155e5761152f81611406565b61153884611418565b81016020851015611547578190505b61155b61155385611418565b8301826114fb565b50505b505050565b5f82821c905092915050565b5f61157e5f1984600802611563565b1980831691505092915050565b5f611596838361156f565b9150826002028217905092915050565b6115af82610fd3565b67ffffffffffffffff8111156115c8576115c7611162565b5b6115d2825461133b565b6115dd82828561151d565b5f60209050601f83116001811461160e575f84156115fc578287015190505b611606858261158b565b86555061166d565b601f19841661161c86611406565b5f5b828110156116435784890151825560018201915060208501945060208101905061161e565b86831015611660578489015161165c601f89168261156f565b8355505b6001600288020188555050505b50505050505056fea2646970667358221220c2de49a5583867dc73d2e6ddd24acf205a46b6f78cd0e54226940c4b90d4dca364736f6c634300081e0033","linkReferences":{}},"methodIdentifiers":{"balanceOf(address)":"70a08231","enrollStudent(address,string,string)":"7d853e7f","getStudentMetadata(address)":"22ecfc3c","getUniversityCoreContract()":"5816a1b2","hasValid(address)":"43945512","isValid(uint256)":"f577a500","ownerOf(uint256)":"6352211e","revoke(uint256)":"20c5429b","s_balances(address)":"ab32eb69","s_owners(uint256)":"f6caf71f","s_studentToTokenId(address)":"21ff53b7","s_students(uint256)":"04b9e29f","s_tokenIdCounter()":"82d8a118","supportsInterface(bytes4)":"01ffc9a7"},"id":32}