{"abi":[{"type":"constructor","inputs":[{"name":"coreContract","type":"address","internalType":"address"}],"stateMutability":"nonpayable"},{"type":"function","name":"WEIGHTED_AVERAGE_PRECISION","inputs":[],"outputs":[{"name":"","type":"uint256","internalType":"uint256"}],"stateMutability":"view"},{"type":"function","name":"addSubject","inputs":[{"name":"name","type":"string","internalType":"string"},{"name":"credits","type":"uint8","internalType":"uint8"},{"name":"professor","type":"address","internalType":"address"}],"outputs":[],"stateMutability":"nonpayable"},{"type":"function","name":"getStudentCredits","inputs":[{"name":"student","type":"address","internalType":"address"}],"outputs":[{"name":"","type":"uint256","internalType":"uint256"}],"stateMutability":"view"},{"type":"function","name":"getStudentGradeRecordOfSubject","inputs":[{"name":"student","type":"address","internalType":"address"},{"name":"subjectId","type":"uint256","internalType":"uint256"}],"outputs":[{"name":"","type":"uint8","internalType":"uint8"},{"name":"","type":"uint256","internalType":"uint256"},{"name":"","type":"address","internalType":"address"}],"stateMutability":"view"},{"type":"function","name":"getSubjectMetadata","inputs":[{"name":"subjectId","type":"uint256","internalType":"uint256"}],"outputs":[{"name":"","type":"string","internalType":"string"},{"name":"","type":"uint8","internalType":"uint8"},{"name":"","type":"address","internalType":"address"},{"name":"","type":"bool","internalType":"bool"}],"stateMutability":"view"},{"type":"function","name":"getUniversityCoreContract","inputs":[],"outputs":[{"name":"","type":"address","internalType":"address"}],"stateMutability":"view"},{"type":"function","name":"getWeightedAverage","inputs":[{"name":"student","type":"address","internalType":"address"},{"name":"subjectIds","type":"uint256[]","internalType":"uint256[]"}],"outputs":[{"name":"average","type":"uint256","internalType":"uint256"}],"stateMutability":"view"},{"type":"function","name":"postGrade","inputs":[{"name":"professor","type":"address","internalType":"address"},{"name":"student","type":"address","internalType":"address"},{"name":"subjectId","type":"uint256","internalType":"uint256"},{"name":"grade","type":"uint8","internalType":"uint8"}],"outputs":[],"stateMutability":"nonpayable"},{"type":"function","name":"s_studentCredits","inputs":[{"name":"student","type":"address","internalType":"address"}],"outputs":[{"name":"credits","type":"uint256","internalType":"uint256"}],"stateMutability":"view"},{"type":"function","name":"s_studentGrades","inputs":[{"name":"student","type":"address","internalType":"address"},{"name":"subjectId","type":"uint256","internalType":"uint256"}],"outputs":[{"name":"grade","type":"uint8","internalType":"uint8"},{"name":"timestamp","type":"uint256","internalType":"uint256"},{"name":"professor","type":"address","internalType":"address"}],"stateMutability":"view"},{"type":"function","name":"s_subjectId","inputs":[],"outputs":[{"name":"","type":"uint256","internalType":"uint256"}],"stateMutability":"view"},{"type":"function","name":"s_subjects","inputs":[{"name":"subjectId","type":"uint256","internalType":"uint256"}],"outputs":[{"name":"name","type":"string","internalType":"string"},{"name":"credits","type":"uint8","internalType":"uint8"},{"name":"professor","type":"address","internalType":"address"},{"name":"isActive","type":"bool","internalType":"bool"}],"stateMutability":"view"},{"type":"function","name":"setSubjectActivity","inputs":[{"name":"professor","type":"address","internalType":"address"},{"name":"subjectId","type":"uint256","internalType":"uint256"},{"name":"isActive","type":"bool","internalType":"bool"}],"outputs":[],"stateMutability":"nonpayable"},{"type":"event","name":"GradePosted","inputs":[{"name":"student","type":"address","indexed":true,"internalType":"address"},{"name":"subjectId","type":"uint256","indexed":false,"internalType":"uint256"},{"name":"grade","type":"uint8","indexed":false,"internalType":"uint8"}],"anonymous":false},{"type":"event","name":"SubjectActivityChanged","inputs":[{"name":"subjectId","type":"uint256","indexed":false,"internalType":"uint256"},{"name":"isActive","type":"bool","indexed":false,"internalType":"bool"}],"anonymous":false},{"type":"event","name":"SubjectAdded","inputs":[{"name":"subjectId","type":"uint256","indexed":true,"internalType":"uint256"},{"name":"name","type":"string","indexed":false,"internalType":"string"},{"name":"credits","type":"uint8","indexed":false,"internalType":"uint8"}],"anonymous":false},{"type":"error","name":"Gradebook__AddressZero","inputs":[]},{"type":"error","name":"Gradebook__GradeGreaterThanTen","inputs":[{"name":"grade","type":"uint256","internalType":"uint256"}]},{"type":"error","name":"Gradebook__NotCore","inputs":[{"name":"sender","type":"address","internalType":"address"}]},{"type":"error","name":"Gradebook__NotProfessorOfSubject","inputs":[{"name":"wrongProfessor","type":"address","internalType":"address"},{"name":"subjectId","type":"uint256","internalType":"uint256"}]},{"type":"error","name":"Gradebook__SubjectIdOutOfBounds","inputs":[{"name":"subjectId","type":"uint256","internalType":"uint256"},{"name":"upperBound","type":"uint256","internalType":"uint256"}]},{"type":"error","name":"Gradebook__SubjectNotActive","inputs":[{"name":"subjectId","type":"uint256","internalType":"uint256"}]}],"bytecode":{"object":"0x60a060405234801561000f575f5ffd5b50604051611fdc380380611fdc83398181016040528101906100319190610135565b5f73ffffffffffffffffffffffffffffffffffffffff168173ffffffffffffffffffffffffffffffffffffffff1603610096576040517f4835fc7800000000000000000000000000000000000000000000000000000000815260040160405180910390fd5b8073ffffffffffffffffffffffffffffffffffffffff1660808173ffffffffffffffffffffffffffffffffffffffff168152505060015f8190555050610160565b5f5ffd5b5f73ffffffffffffffffffffffffffffffffffffffff82169050919050565b5f610104826100db565b9050919050565b610114816100fa565b811461011e575f5ffd5b50565b5f8151905061012f8161010b565b92915050565b5f6020828403121561014a576101496100d7565b5b5f61015784828501610121565b91505092915050565b608051611e4f61018d5f395f81816102db015281816107b5015281816109860152610fd30152611e4f5ff3fe608060405234801561000f575f5ffd5b50600436106100cd575f3560e01c80635816a1b21161008a578063732c2b5a11610064578063732c2b5a1461023c57806388b622101461026c5780638d99e8a214610288578063e9b59ca3146102bb576100cd565b80635816a1b2146101cf5780635910ff53146101ed5780637077be7d14610220576100cd565b80630e0b841f146100d1578063155bc532146100ed57806326fd66041461011d57806328d1b3461461014d57806336f8ac5f1461017f5780633cb44e191461019d575b5f5ffd5b6100eb60048036038101906100e69190611368565b6102d9565b005b610107600480360381019061010291906113b8565b6104b6565b60405161011491906113f2565b60405180910390f35b6101376004803603810190610132919061146c565b6104cb565b60405161014491906113f2565b60405180910390f35b610167600480360381019061016291906114c9565b61065e565b60405161017693929190611531565b60405180910390f35b6101876106ba565b60405161019491906113f2565b60405180910390f35b6101b760048036038101906101b291906114c9565b6106bf565b6040516101c693929190611531565b60405180910390f35b6101d76107b2565b6040516101e49190611566565b60405180910390f35b6102076004803603810190610202919061157f565b6107d9565b6040516102179493929190611629565b60405180910390f35b61023a6004803603810190610235919061169d565b610984565b005b610256600480360381019061025191906113b8565b610f8b565b60405161026391906113f2565b60405180910390f35b61028660048036038101906102819190611829565b610fd1565b005b6102a2600480360381019061029d919061157f565b6111a5565b6040516102b29493929190611629565b60405180910390f35b6102c3611290565b6040516102d091906113f2565b60405180910390f35b7f000000000000000000000000000000000000000000000000000000000000000073ffffffffffffffffffffffffffffffffffffffff163373ffffffffffffffffffffffffffffffffffffffff161461036957336040517f4e033eec0000000000000000000000000000000000000000000000000000000081526004016103609190611566565b60405180910390fd5b5f5482106103b157815f546040517fec7fa2350000000000000000000000000000000000000000000000000000000081526004016103a8929190611895565b60405180910390fd5b5f60015f8481526020019081526020015f2090508060010160019054906101000a900473ffffffffffffffffffffffffffffffffffffffff1673ffffffffffffffffffffffffffffffffffffffff168473ffffffffffffffffffffffffffffffffffffffff161461045b5783836040517f901fc04f0000000000000000000000000000000000000000000000000000000081526004016104529291906118bc565b60405180910390fd5b818160010160156101000a81548160ff0219169083151502179055507feca0094efa5364c93929c2aed41daeba7eef3020a6f3faf9ed82bde237fd94c683836040516104a89291906118e3565b60405180910390a150505050565b6003602052805f5260405f205f915090505481565b5f5f5f5f5f90505b85859050811015610628575f8686838181106104f2576104f161190a565b5b9050602002013590505f60025f8a73ffffffffffffffffffffffffffffffffffffffff1673ffffffffffffffffffffffffffffffffffffffff1681526020019081526020015f205f8381526020019081526020015f205f015f9054906101000a900460ff1690505f54821015806105b757505f60025f8b73ffffffffffffffffffffffffffffffffffffffff1673ffffffffffffffffffffffffffffffffffffffff1681526020019081526020015f205f8481526020019081526020015f2060010154145b156105c357505061061b565b5f60015f8481526020019081526020015f206001015f9054906101000a900460ff1690508060ff168260ff166105f99190611964565b8561060491906119a5565b94508060ff168661061591906119a5565b95505050505b80806001019150506104d3565b505f820361063a575f92505050610657565b816064826106489190611964565b6106529190611a05565b925050505b9392505050565b6002602052815f5260405f20602052805f5260405f205f9150915050805f015f9054906101000a900460ff1690806001015490806002015f9054906101000a900473ffffffffffffffffffffffffffffffffffffffff16905083565b5f5481565b5f5f5f5f60025f8773ffffffffffffffffffffffffffffffffffffffff1673ffffffffffffffffffffffffffffffffffffffff1681526020019081526020015f205f8681526020019081526020015f206040518060600160405290815f82015f9054906101000a900460ff1660ff1660ff16815260200160018201548152602001600282015f9054906101000a900473ffffffffffffffffffffffffffffffffffffffff1673ffffffffffffffffffffffffffffffffffffffff1673ffffffffffffffffffffffffffffffffffffffff16815250509050805f015181602001518260400151935093509350509250925092565b5f7f0000000000000000000000000000000000000000000000000000000000000000905090565b60605f5f5f5f54851061082657845f546040517fec7fa23500000000000000000000000000000000000000000000000000000000815260040161081d929190611895565b60405180910390fd5b5f60015f8781526020019081526020015f206040518060800160405290815f8201805461085290611a62565b80601f016020809104026020016040519081016040528092919081815260200182805461087e90611a62565b80156108c95780601f106108a0576101008083540402835291602001916108c9565b820191905f5260205f20905b8154815290600101906020018083116108ac57829003601f168201915b50505050508152602001600182015f9054906101000a900460ff1660ff1660ff1681526020016001820160019054906101000a900473ffffffffffffffffffffffffffffffffffffffff1673ffffffffffffffffffffffffffffffffffffffff1673ffffffffffffffffffffffffffffffffffffffff1681526020016001820160159054906101000a900460ff1615151515815250509050805f01518160200151826040015183606001519450945094509450509193509193565b7f000000000000000000000000000000000000000000000000000000000000000073ffffffffffffffffffffffffffffffffffffffff163373ffffffffffffffffffffffffffffffffffffffff1614610a1457336040517f4e033eec000000000000000000000000000000000000000000000000000000008152600401610a0b9190611566565b60405180910390fd5b5f548210610a5c57815f546040517fec7fa235000000000000000000000000000000000000000000000000000000008152600401610a53929190611895565b60405180910390fd5b5f60015f8481526020019081526020015f206040518060800160405290815f82018054610a8890611a62565b80601f0160208091040260200160405190810160405280929190818152602001828054610ab490611a62565b8015610aff5780601f10610ad657610100808354040283529160200191610aff565b820191905f5260205f20905b815481529060010190602001808311610ae257829003601f168201915b50505050508152602001600182015f9054906101000a900460ff1660ff1660ff1681526020016001820160019054906101000a900473ffffffffffffffffffffffffffffffffffffffff1673ffffffffffffffffffffffffffffffffffffffff1673ffffffffffffffffffffffffffffffffffffffff1681526020016001820160159054906101000a900460ff16151515158152505090508060600151610bdd57826040517fe3ecd770000000000000000000000000000000000000000000000000000000008152600401610bd491906113f2565b60405180910390fd5b806040015173ffffffffffffffffffffffffffffffffffffffff168573ffffffffffffffffffffffffffffffffffffffff1614610c535784836040517f901fc04f000000000000000000000000000000000000000000000000000000008152600401610c4a9291906118bc565b60405180910390fd5b600a8260ff161115610c9c57816040517f308c22e0000000000000000000000000000000000000000000000000000000008152600401610c939190611acb565b60405180910390fd5b60058260ff1610158015610d0d5750600560025f8673ffffffffffffffffffffffffffffffffffffffff1673ffffffffffffffffffffffffffffffffffffffff1681526020019081526020015f205f8581526020019081526020015f205f015f9054906101000a900460ff1660ff16105b15610d7157806020015160ff1660035f8673ffffffffffffffffffffffffffffffffffffffff1673ffffffffffffffffffffffffffffffffffffffff1681526020019081526020015f205f828254610d6591906119a5565b92505081905550610e43565b60058260ff16108015610de25750600560025f8673ffffffffffffffffffffffffffffffffffffffff1673ffffffffffffffffffffffffffffffffffffffff1681526020019081526020015f205f8581526020019081526020015f205f015f9054906101000a900460ff1660ff1610155b15610e4257806020015160ff1660035f8673ffffffffffffffffffffffffffffffffffffffff1673ffffffffffffffffffffffffffffffffffffffff1681526020019081526020015f205f828254610e3a9190611ae4565b925050819055505b5b60405180606001604052808360ff1681526020014281526020018673ffffffffffffffffffffffffffffffffffffffff1681525060025f8673ffffffffffffffffffffffffffffffffffffffff1673ffffffffffffffffffffffffffffffffffffffff1681526020019081526020015f205f8581526020019081526020015f205f820151815f015f6101000a81548160ff021916908360ff160217905550602082015181600101556040820151816002015f6101000a81548173ffffffffffffffffffffffffffffffffffffffff021916908373ffffffffffffffffffffffffffffffffffffffff1602179055509050508373ffffffffffffffffffffffffffffffffffffffff167fd6654b4b1098e1c202af07e9e06c56785f18e3f16c536c0fc8d85db8b863c96e8484604051610f7c929190611b17565b60405180910390a25050505050565b5f60035f8373ffffffffffffffffffffffffffffffffffffffff1673ffffffffffffffffffffffffffffffffffffffff1681526020019081526020015f20549050919050565b7f000000000000000000000000000000000000000000000000000000000000000073ffffffffffffffffffffffffffffffffffffffff163373ffffffffffffffffffffffffffffffffffffffff161461106157336040517f4e033eec0000000000000000000000000000000000000000000000000000000081526004016110589190611566565b60405180910390fd5b5f5f5f81548092919061107390611b3e565b91905055905060405180608001604052808581526020018460ff1681526020018373ffffffffffffffffffffffffffffffffffffffff1681526020016001151581525060015f8381526020019081526020015f205f820151815f0190816110da9190611d1c565b506020820151816001015f6101000a81548160ff021916908360ff16021790555060408201518160010160016101000a81548173ffffffffffffffffffffffffffffffffffffffff021916908373ffffffffffffffffffffffffffffffffffffffff16021790555060608201518160010160156101000a81548160ff021916908315150217905550905050807f07e7d13f0bc799791587a894dc0798ecd273132f2016df3b6b00b403c550e6698585604051611197929190611deb565b60405180910390a250505050565b6001602052805f5260405f205f91509050805f0180546111c490611a62565b80601f01602080910402602001604051908101604052809291908181526020018280546111f090611a62565b801561123b5780601f106112125761010080835404028352916020019161123b565b820191905f5260205f20905b81548152906001019060200180831161121e57829003601f168201915b505050505090806001015f9054906101000a900460ff16908060010160019054906101000a900473ffffffffffffffffffffffffffffffffffffffff16908060010160159054906101000a900460ff16905084565b606481565b5f604051905090565b5f5ffd5b5f5ffd5b5f73ffffffffffffffffffffffffffffffffffffffff82169050919050565b5f6112cf826112a6565b9050919050565b6112df816112c5565b81146112e9575f5ffd5b50565b5f813590506112fa816112d6565b92915050565b5f819050919050565b61131281611300565b811461131c575f5ffd5b50565b5f8135905061132d81611309565b92915050565b5f8115159050919050565b61134781611333565b8114611351575f5ffd5b50565b5f813590506113628161133e565b92915050565b5f5f5f6060848603121561137f5761137e61129e565b5b5f61138c868287016112ec565b935050602061139d8682870161131f565b92505060406113ae86828701611354565b9150509250925092565b5f602082840312156113cd576113cc61129e565b5b5f6113da848285016112ec565b91505092915050565b6113ec81611300565b82525050565b5f6020820190506114055f8301846113e3565b92915050565b5f5ffd5b5f5ffd5b5f5ffd5b5f5f83601f84011261142c5761142b61140b565b5b8235905067ffffffffffffffff8111156114495761144861140f565b5b60208301915083602082028301111561146557611464611413565b5b9250929050565b5f5f5f604084860312156114835761148261129e565b5b5f611490868287016112ec565b935050602084013567ffffffffffffffff8111156114b1576114b06112a2565b5b6114bd86828701611417565b92509250509250925092565b5f5f604083850312156114df576114de61129e565b5b5f6114ec858286016112ec565b92505060206114fd8582860161131f565b9150509250929050565b5f60ff82169050919050565b61151c81611507565b82525050565b61152b816112c5565b82525050565b5f6060820190506115445f830186611513565b61155160208301856113e3565b61155e6040830184611522565b949350505050565b5f6020820190506115795f830184611522565b92915050565b5f602082840312156115945761159361129e565b5b5f6115a18482850161131f565b91505092915050565b5f81519050919050565b5f82825260208201905092915050565b8281835e5f83830152505050565b5f601f19601f8301169050919050565b5f6115ec826115aa565b6115f681856115b4565b93506116068185602086016115c4565b61160f816115d2565b840191505092915050565b61162381611333565b82525050565b5f6080820190508181035f83015261164181876115e2565b90506116506020830186611513565b61165d6040830185611522565b61166a606083018461161a565b95945050505050565b61167c81611507565b8114611686575f5ffd5b50565b5f8135905061169781611673565b92915050565b5f5f5f5f608085870312156116b5576116b461129e565b5b5f6116c2878288016112ec565b94505060206116d3878288016112ec565b93505060406116e48782880161131f565b92505060606116f587828801611689565b91505092959194509250565b5f5ffd5b7f4e487b71000000000000000000000000000000000000000000000000000000005f52604160045260245ffd5b61173b826115d2565b810181811067ffffffffffffffff8211171561175a57611759611705565b5b80604052505050565b5f61176c611295565b90506117788282611732565b919050565b5f67ffffffffffffffff82111561179757611796611705565b5b6117a0826115d2565b9050602081019050919050565b828183375f83830152505050565b5f6117cd6117c88461177d565b611763565b9050828152602081018484840111156117e9576117e8611701565b5b6117f48482856117ad565b509392505050565b5f82601f8301126118105761180f61140b565b5b81356118208482602086016117bb565b91505092915050565b5f5f5f606084860312156118405761183f61129e565b5b5f84013567ffffffffffffffff81111561185d5761185c6112a2565b5b611869868287016117fc565b935050602061187a86828701611689565b925050604061188b868287016112ec565b9150509250925092565b5f6040820190506118a85f8301856113e3565b6118b560208301846113e3565b9392505050565b5f6040820190506118cf5f830185611522565b6118dc60208301846113e3565b9392505050565b5f6040820190506118f65f8301856113e3565b611903602083018461161a565b9392505050565b7f4e487b71000000000000000000000000000000000000000000000000000000005f52603260045260245ffd5b7f4e487b71000000000000000000000000000000000000000000000000000000005f52601160045260245ffd5b5f61196e82611300565b915061197983611300565b925082820261198781611300565b9150828204841483151761199e5761199d611937565b5b5092915050565b5f6119af82611300565b91506119ba83611300565b92508282019050808211156119d2576119d1611937565b5b92915050565b7f4e487b71000000000000000000000000000000000000000000000000000000005f52601260045260245ffd5b5f611a0f82611300565b9150611a1a83611300565b925082611a2a57611a296119d8565b5b828204905092915050565b7f4e487b71000000000000000000000000000000000000000000000000000000005f52602260045260245ffd5b5f6002820490506001821680611a7957607f821691505b602082108103611a8c57611a8b611a35565b5b50919050565b5f819050919050565b5f611ab5611ab0611aab84611507565b611a92565b611300565b9050919050565b611ac581611a9b565b82525050565b5f602082019050611ade5f830184611abc565b92915050565b5f611aee82611300565b9150611af983611300565b9250828203905081811115611b1157611b10611937565b5b92915050565b5f604082019050611b2a5f8301856113e3565b611b376020830184611513565b9392505050565b5f611b4882611300565b91507fffffffffffffffffffffffffffffffffffffffffffffffffffffffffffffffff8203611b7a57611b79611937565b5b600182019050919050565b5f819050815f5260205f209050919050565b5f6020601f8301049050919050565b5f82821b905092915050565b5f60088302611be17fffffffffffffffffffffffffffffffffffffffffffffffffffffffffffffffff82611ba6565b611beb8683611ba6565b95508019841693508086168417925050509392505050565b5f611c1d611c18611c1384611300565b611a92565b611300565b9050919050565b5f819050919050565b611c3683611c03565b611c4a611c4282611c24565b848454611bb2565b825550505050565b5f5f905090565b611c61611c52565b611c6c818484611c2d565b505050565b5b81811015611c8f57611c845f82611c59565b600181019050611c72565b5050565b601f821115611cd457611ca581611b85565b611cae84611b97565b81016020851015611cbd578190505b611cd1611cc985611b97565b830182611c71565b50505b505050565b5f82821c905092915050565b5f611cf45f1984600802611cd9565b1980831691505092915050565b5f611d0c8383611ce5565b9150826002028217905092915050565b611d25826115aa565b67ffffffffffffffff811115611d3e57611d3d611705565b5b611d488254611a62565b611d53828285611c93565b5f60209050601f831160018114611d84575f8415611d72578287015190505b611d7c8582611d01565b865550611de3565b601f198416611d9286611b85565b5f5b82811015611db957848901518255600182019150602085019450602081019050611d94565b86831015611dd65784890151611dd2601f891682611ce5565b8355505b6001600288020188555050505b505050505050565b5f6040820190508181035f830152611e0381856115e2565b9050611e126020830184611513565b939250505056fea2646970667358221220066489e6cf50a8c0557057aa52bfc6cf079b5cca1a0fc2941cd9ad4307f1b10e64736f6c634300081e0033","linkReferences":{}},"methodIdentifiers":{"WEIGHTED_AVERAGE_PRECISION()":"e9b59ca3","addSubject(string,uint8,address)":"88b62210","getStudentCredits(address)":"732c2b5a","getStudentGradeRecordOfSubject(address,uint256)":"3cb44e19","getSubjectMetadata(uint256)":"5910ff53","getUniversityCoreContract()":"5816a1b2","getWeightedAverage(address,uint256[])":"26fd6604","postGrade(address,address,uint256,uint8)":"7077be7d","s_studentCredits(address)":"155bc532","s_studentGrades(address,uint256)":"28d1b346","s_subjectId()":"36f8ac5f","s_subjects(uint256)":"8d99e8a2","setSubjectActivity(address,uint256,bool)":"0e0b841f"},"id":25}