{"abi":[{"type":"constructor","inputs":[{"name":"facultyName","type":"string","internalType":"string"},{"name":"owner","type":"address","internalType":"address"}],"stateMutability":"nonpayable"},{"type":"function","name":"ADMIN_ROLE","inputs":[],"outputs":[{"name":"","type":"bytes32","internalType":"bytes32"}],"stateMutability":"view"},{"type":"function","name":"DEFAULT_ADMIN_ROLE","inputs":[],"outputs":[{"name":"","type":"bytes32","internalType":"bytes32"}],"stateMutability":"view"},{"type":"function","name":"DIPLOMA_ISSUER_ROLE","inputs":[],"outputs":[{"name":"","type":"bytes32","internalType":"bytes32"}],"stateMutability":"view"},{"type":"function","name":"PROFESSOR_ROLE","inputs":[],"outputs":[{"name":"","type":"bytes32","internalType":"bytes32"}],"stateMutability":"view"},{"type":"function","name":"addDiplomaIssuer","inputs":[{"name":"issuer","type":"address","internalType":"address"}],"outputs":[],"stateMutability":"nonpayable"},{"type":"function","name":"addProfessor","inputs":[{"name":"professor","type":"address","internalType":"address"}],"outputs":[],"stateMutability":"nonpayable"},{"type":"function","name":"addSubject","inputs":[{"name":"name","type":"string","internalType":"string"},{"name":"credits","type":"uint8","internalType":"uint8"},{"name":"professor","type":"address","internalType":"address"}],"outputs":[],"stateMutability":"nonpayable"},{"type":"function","name":"enrollStudent","inputs":[{"name":"student","type":"address","internalType":"address"},{"name":"registrationNumber","type":"string","internalType":"string"}],"outputs":[],"stateMutability":"nonpayable"},{"type":"function","name":"getCertificationContract","inputs":[],"outputs":[{"name":"","type":"address","internalType":"address"}],"stateMutability":"view"},{"type":"function","name":"getGradebookContract","inputs":[],"outputs":[{"name":"","type":"address","internalType":"address"}],"stateMutability":"view"},{"type":"function","name":"getRoleAdmin","inputs":[{"name":"role","type":"bytes32","internalType":"bytes32"}],"outputs":[{"name":"","type":"bytes32","internalType":"bytes32"}],"stateMutability":"view"},{"type":"function","name":"getStudentRegistryContract","inputs":[],"outputs":[{"name":"","type":"address","internalType":"address"}],"stateMutability":"view"},{"type":"function","name":"grantRole","inputs":[{"name":"role","type":"bytes32","internalType":"bytes32"},{"name":"account","type":"address","internalType":"address"}],"outputs":[],"stateMutability":"nonpayable"},{"type":"function","name":"hasRole","inputs":[{"name":"role","type":"bytes32","internalType":"bytes32"},{"name":"account","type":"address","internalType":"address"}],"outputs":[{"name":"","type":"bool","internalType":"bool"}],"stateMutability":"view"},{"type":"function","name":"issueDiploma","inputs":[{"name":"student","type":"address","internalType":"address"},{"name":"degreeTitle","type":"string","internalType":"string"},{"name":"major","type":"string","internalType":"string"},{"name":"subjectIds","type":"uint256[]","internalType":"uint256[]"}],"outputs":[],"stateMutability":"nonpayable"},{"type":"function","name":"postGrade","inputs":[{"name":"student","type":"address","internalType":"address"},{"name":"subjectId","type":"uint256","internalType":"uint256"},{"name":"grade","type":"uint8","internalType":"uint8"}],"outputs":[],"stateMutability":"nonpayable"},{"type":"function","name":"renounceRole","inputs":[{"name":"role","type":"bytes32","internalType":"bytes32"},{"name":"callerConfirmation","type":"address","internalType":"address"}],"outputs":[],"stateMutability":"nonpayable"},{"type":"function","name":"revokeRole","inputs":[{"name":"role","type":"bytes32","internalType":"bytes32"},{"name":"account","type":"address","internalType":"address"}],"outputs":[],"stateMutability":"nonpayable"},{"type":"function","name":"s_certificationContract","inputs":[],"outputs":[{"name":"","type":"address","internalType":"contract ICertification"}],"stateMutability":"view"},{"type":"function","name":"s_facultyName","inputs":[],"outputs":[{"name":"","type":"string","internalType":"string"}],"stateMutability":"view"},{"type":"function","name":"s_gradebookContract","inputs":[],"outputs":[{"name":"","type":"address","internalType":"contract IGradebook"}],"stateMutability":"view"},{"type":"function","name":"s_studentRegistryContract","inputs":[],"outputs":[{"name":"","type":"address","internalType":"contract IStudentRegistry"}],"stateMutability":"view"},{"type":"function","name":"setCertificationContract","inputs":[{"name":"certificationContract","type":"address","internalType":"address"}],"outputs":[],"stateMutability":"nonpayable"},{"type":"function","name":"setGradebookContract","inputs":[{"name":"gradebookContract","type":"address","internalType":"address"}],"outputs":[],"stateMutability":"nonpayable"},{"type":"function","name":"setStudentRegistryContract","inputs":[{"name":"studentRegistryContract","type":"address","internalType":"address"}],"outputs":[],"stateMutability":"nonpayable"},{"type":"function","name":"setSubjectActivity","inputs":[{"name":"subjectId","type":"uint256","internalType":"uint256"},{"name":"isActive","type":"bool","internalType":"bool"}],"outputs":[],"stateMutability":"nonpayable"},{"type":"function","name":"supportsInterface","inputs":[{"name":"interfaceId","type":"bytes4","internalType":"bytes4"}],"outputs":[{"name":"","type":"bool","internalType":"bool"}],"stateMutability":"view"},{"type":"event","name":"CertificationContractSet","inputs":[{"name":"newCertificationContract","type":"address","indexed":false,"internalType":"address"},{"name":"oldCertificationContract","type":"address","indexed":false,"internalType":"address"}],"anonymous":false},{"type":"event","name":"DiplomaIssuerAdded","inputs":[{"name":"issuer","type":"address","indexed":true,"internalType":"address"}],"anonymous":false},{"type":"event","name":"FacultyNameSet","inputs":[{"name":"facultyName","type":"string","indexed":false,"internalType":"string"}],"anonymous":false},{"type":"event","name":"GradebookContractSet","inputs":[{"name":"newGradebookContract","type":"address","indexed":false,"internalType":"address"},{"name":"oldGradebookContract","type":"address","indexed":false,"internalType":"address"}],"anonymous":false},{"type":"event","name":"ProfessorAdded","inputs":[{"name":"professor","type":"address","indexed":true,"internalType":"address"}],"anonymous":false},{"type":"event","name":"RoleAdminChanged","inputs":[{"name":"role","type":"bytes32","indexed":true,"internalType":"bytes32"},{"name":"previousAdminRole","type":"bytes32","indexed":true,"internalType":"bytes32"},{"name":"newAdminRole","type":"bytes32","indexed":true,"internalType":"bytes32"}],"anonymous":false},{"type":"event","name":"RoleGranted","inputs":[{"name":"role","type":"bytes32","indexed":true,"internalType":"bytes32"},{"name":"account","type":"address","indexed":true,"internalType":"address"},{"name":"sender","type":"address","indexed":true,"internalType":"address"}],"anonymous":false},{"type":"event","name":"RoleRevoked","inputs":[{"name":"role","type":"bytes32","indexed":true,"internalType":"bytes32"},{"name":"account","type":"address","indexed":true,"internalType":"address"},{"name":"sender","type":"address","indexed":true,"internalType":"address"}],"anonymous":false},{"type":"event","name":"StudentRegistryContractSet","inputs":[{"name":"newStudentRegistryContract","type":"address","indexed":false,"internalType":"address"},{"name":"oldStudentRegistryContract","type":"address","indexed":false,"internalType":"address"}],"anonymous":false},{"type":"error","name":"AccessControlBadConfirmation","inputs":[]},{"type":"error","name":"AccessControlUnauthorizedAccount","inputs":[{"name":"account","type":"address","internalType":"address"},{"name":"neededRole","type":"bytes32","internalType":"bytes32"}]},{"type":"error","name":"UniversityCore__AccountIsNotProfessor","inputs":[{"name":"professor","type":"address","internalType":"address"}]},{"type":"error","name":"UniversityCore__AddressZero","inputs":[]},{"type":"error","name":"UniversityCore__ContractDoesNotSupportIERC4671","inputs":[{"name":"verifiedContract","type":"address","internalType":"address"}]},{"type":"error","name":"UniversityCore__FacultyNameZero","inputs":[]},{"type":"error","name":"UniversityCore__SameAddress","inputs":[]},{"type":"error","name":"UniversityCore__StudentAlreadyHasDiploma","inputs":[{"name":"student","type":"address","internalType":"address"}]},{"type":"error","name":"UniversityCore__StudentEnrolledAlready","inputs":[{"name":"student","type":"address","internalType":"address"}]},{"type":"error","name":"UniversityCore__StudentIsNotEnrolled","inputs":[{"name":"student","type":"address","internalType":"address"}]}],"bytecode":{"object":"0x608060405234801561000f575f5ffd5b506040516130bd3803806130bd83398181016040528101906100319190610468565b5f73ffffffffffffffffffffffffffffffffffffffff168173ffffffffffffffffffffffffffffffffffffffff1603610096576040517f04fa1f8900000000000000000000000000000000000000000000000000000000815260040160405180910390fd5b5f8251036100d0576040517fbdaec2c200000000000000000000000000000000000000000000000000000000815260040160405180910390fd5b81600190816100df91906106d2565b507f8dc167bc30400287aaa8e01cf4e9530dc130b48b2e1a7e7d729d037539d828f18260405161010f91906107e9565b60405180910390a16101295f5f1b8261016260201b60201c565b5061015a7fa49807205ce4d355092ef5a8a18f56e8913cf4a201fbe287825b095693c217758261016260201b60201c565b505050610809565b5f610173838361025760201b60201c565b61024d5760015f5f8581526020019081526020015f205f015f8473ffffffffffffffffffffffffffffffffffffffff1673ffffffffffffffffffffffffffffffffffffffff1681526020019081526020015f205f6101000a81548160ff0219169083151502179055506101ea6102ba60201b60201c565b73ffffffffffffffffffffffffffffffffffffffff168273ffffffffffffffffffffffffffffffffffffffff16847f2f8788117e7eff1d82e926ec794901d17c78024a50270940304540a733656f0d60405160405180910390a460019050610251565b5f90505b92915050565b5f5f5f8481526020019081526020015f205f015f8373ffffffffffffffffffffffffffffffffffffffff1673ffffffffffffffffffffffffffffffffffffffff1681526020019081526020015f205f9054906101000a900460ff16905092915050565b5f33905090565b5f604051905090565b5f5ffd5b5f5ffd5b5f5ffd5b5f5ffd5b5f601f19601f8301169050919050565b7f4e487b71000000000000000000000000000000000000000000000000000000005f52604160045260245ffd5b610320826102da565b810181811067ffffffffffffffff8211171561033f5761033e6102ea565b5b80604052505050565b5f6103516102c1565b905061035d8282610317565b919050565b5f67ffffffffffffffff82111561037c5761037b6102ea565b5b610385826102da565b9050602081019050919050565b8281835e5f83830152505050565b5f6103b26103ad84610362565b610348565b9050828152602081018484840111156103ce576103cd6102d6565b5b6103d9848285610392565b509392505050565b5f82601f8301126103f5576103f46102d2565b5b81516104058482602086016103a0565b91505092915050565b5f73ffffffffffffffffffffffffffffffffffffffff82169050919050565b5f6104378261040e565b9050919050565b6104478161042d565b8114610451575f5ffd5b50565b5f815190506104628161043e565b92915050565b5f5f6040838503121561047e5761047d6102ca565b5b5f83015167ffffffffffffffff81111561049b5761049a6102ce565b5b6104a7858286016103e1565b92505060206104b885828601610454565b9150509250929050565b5f81519050919050565b7f4e487b71000000000000000000000000000000000000000000000000000000005f52602260045260245ffd5b5f600282049050600182168061051057607f821691505b602082108103610523576105226104cc565b5b50919050565b5f819050815f5260205f209050919050565b5f6020601f8301049050919050565b5f82821b905092915050565b5f600883026105857fffffffffffffffffffffffffffffffffffffffffffffffffffffffffffffffff8261054a565b61058f868361054a565b95508019841693508086168417925050509392505050565b5f819050919050565b5f819050919050565b5f6105d36105ce6105c9846105a7565b6105b0565b6105a7565b9050919050565b5f819050919050565b6105ec836105b9565b6106006105f8826105da565b848454610556565b825550505050565b5f5f905090565b610617610608565b6106228184846105e3565b505050565b5b818110156106455761063a5f8261060f565b600181019050610628565b5050565b601f82111561068a5761065b81610529565b6106648461053b565b81016020851015610673578190505b61068761067f8561053b565b830182610627565b50505b505050565b5f82821c905092915050565b5f6106aa5f198460080261068f565b1980831691505092915050565b5f6106c2838361069b565b9150826002028217905092915050565b6106db826104c2565b67ffffffffffffffff8111156106f4576106f36102ea565b5b6106fe82546104f9565b610709828285610649565b5f60209050601f83116001811461073a575f8415610728578287015190505b61073285826106b7565b865550610799565b601f19841661074886610529565b5f5b8281101561076f5784890151825560018201915060208501945060208101905061074a565b8683101561078c5784890151610788601f89168261069b565b8355505b6001600288020188555050505b505050505050565b5f82825260208201905092915050565b5f6107bb826104c2565b6107c581856107a1565b93506107d5818560208601610392565b6107de816102da565b840191505092915050565b5f6020820190508181035f83015261080181846107b1565b905092915050565b6128a7806108165f395ff3fe608060405234801561000f575f5ffd5b50600436106101a7575f3560e01c8063795fa5a7116100f7578063bd3b517211610095578063d17d65e11161006f578063d17d65e11461047d578063d547741f14610499578063f39ed26e146104b5578063f8df4872146104d3576101a7565b8063bd3b517214610425578063c7689ef214610443578063c81cf7711461045f576101a7565b806391d14854116100d157806391d148541461039d578063a09e0d90146103cd578063a217fddf146103eb578063b940e8dc14610409576101a7565b8063795fa5a7146103475780637fbf450c1461036357806388b6221014610381576101a7565b806336568abe116101645780634ffc2dd21161013e5780634ffc2dd2146102d357806353b65f77146102ef5780636688f1931461030b57806375b238fc14610329576101a7565b806336568abe1461027d5780633719ea1f146102995780634268edaa146102b7576101a7565b806301ffc9a7146101ab5780631985f45f146101db578063216a9af8146101f7578063248a9ca314610215578063261d822f146102455780632f2ff15d14610261575b5f5ffd5b6101c560048036038101906101c09190611c73565b6104f1565b6040516101d29190611cb8565b60405180910390f35b6101f560048036038101906101f09190611d2b565b61056a565b005b6101ff6107fb565b60405161020c9190611db1565b60405180910390f35b61022f600480360381019061022a9190611dfd565b610820565b60405161023c9190611e37565b60405180910390f35b61025f600480360381019061025a9190611f8c565b61083c565b005b61027b60048036038101906102769190611fe6565b6109d2565b005b61029760048036038101906102929190611fe6565b6109f4565b005b6102a1610a6f565b6040516102ae9190612033565b60405180910390f35b6102d160048036038101906102cc9190611d2b565b610a97565b005b6102ed60048036038101906102e891906120fe565b610b33565b005b6103096004803603810190610304919061222b565b610eed565b005b610313611084565b604051610320919061229b565b60405180910390f35b6103316110a9565b60405161033e9190611e37565b60405180910390f35b610361600480360381019061035c9190611d2b565b6110cd565b005b61036b61135e565b6040516103789190611e37565b60405180910390f35b61039b600480360381019061039691906122b4565b611382565b005b6103b760048036038101906103b29190611fe6565b6114a8565b6040516103c49190611cb8565b60405180910390f35b6103d561150b565b6040516103e29190612033565b60405180910390f35b6103f3611533565b6040516104009190611e37565b60405180910390f35b610423600480360381019061041e9190611d2b565b611539565b005b61042d6115d5565b60405161043a9190612033565b60405180910390f35b61045d60048036038101906104589190611d2b565b6115fd565b005b6104676117b5565b6040516104749190611e37565b60405180910390f35b6104976004803603810190610492919061234a565b6117d9565b005b6104b360048036038101906104ae9190611fe6565b611893565b005b6104bd6118b5565b6040516104ca91906123e8565b60405180910390f35b6104db611941565b6040516104e89190612428565b60405180910390f35b5f7f7965db0b000000000000000000000000000000000000000000000000000000007bffffffffffffffffffffffffffffffffffffffffffffffffffffffff1916827bffffffffffffffffffffffffffffffffffffffffffffffffffffffff19161480610563575061056282611966565b5b9050919050565b7fa49807205ce4d355092ef5a8a18f56e8913cf4a201fbe287825b095693c21775610594816119cf565b5f73ffffffffffffffffffffffffffffffffffffffff168273ffffffffffffffffffffffffffffffffffffffff16036105f9576040517f04fa1f8900000000000000000000000000000000000000000000000000000000815260040160405180910390fd5b60045f9054906101000a900473ffffffffffffffffffffffffffffffffffffffff1673ffffffffffffffffffffffffffffffffffffffff168273ffffffffffffffffffffffffffffffffffffffff160361067f576040517f4b75072100000000000000000000000000000000000000000000000000000000815260040160405180910390fd5b8173ffffffffffffffffffffffffffffffffffffffff166301ffc9a77fa511533d000000000000000000000000000000000000000000000000000000006040518263ffffffff1660e01b81526004016106d89190612450565b602060405180830381865afa1580156106f3573d5f5f3e3d5ffd5b505050506040513d601f19601f82011682018060405250810190610717919061247d565b61075857816040517f9e8b0a9a00000000000000000000000000000000000000000000000000000000815260040161074f9190612033565b60405180910390fd5b5f60045f9054906101000a900473ffffffffffffffffffffffffffffffffffffffff1690508260045f6101000a81548173ffffffffffffffffffffffffffffffffffffffff021916908373ffffffffffffffffffffffffffffffffffffffff1602179055507f31c0a2bb738c5dcea2d5bfa9b27c441c4b886bff19611b9ce208130adc20c2e283826040516107ee9291906124a8565b60405180910390a1505050565b60025f9054906101000a900473ffffffffffffffffffffffffffffffffffffffff1681565b5f5f5f8381526020019081526020015f20600101549050919050565b7fa49807205ce4d355092ef5a8a18f56e8913cf4a201fbe287825b095693c21775610866816119cf565b60025f9054906101000a900473ffffffffffffffffffffffffffffffffffffffff1673ffffffffffffffffffffffffffffffffffffffff166343945512846040518263ffffffff1660e01b81526004016108c09190612033565b602060405180830381865afa1580156108db573d5f5f3e3d5ffd5b505050506040513d601f19601f820116820180604052508101906108ff919061247d565b1561094157826040517f7b0cb0c10000000000000000000000000000000000000000000000000000000081526004016109389190612033565b60405180910390fd5b60025f9054906101000a900473ffffffffffffffffffffffffffffffffffffffff1673ffffffffffffffffffffffffffffffffffffffff16637d853e7f846001856040518463ffffffff1660e01b81526004016109a0939291906125bf565b5f604051808303815f87803b1580156109b7575f5ffd5b505af11580156109c9573d5f5f3e3d5ffd5b50505050505050565b6109db82610820565b6109e4816119cf565b6109ee83836119e3565b50505050565b6109fc611acc565b73ffffffffffffffffffffffffffffffffffffffff168173ffffffffffffffffffffffffffffffffffffffff1614610a60576040517f6697b23200000000000000000000000000000000000000000000000000000000815260040160405180910390fd5b610a6a8282611ad3565b505050565b5f60025f9054906101000a900473ffffffffffffffffffffffffffffffffffffffff16905090565b7fa49807205ce4d355092ef5a8a18f56e8913cf4a201fbe287825b095693c21775610ac1816119cf565b610aeb7f577f08e4a510a24c05fb531f78cace5d373d442eb2ba1e22f5bcf2bf4248c21e836119e3565b508173ffffffffffffffffffffffffffffffffffffffff167fc314a8ab46f679df157d309facb47ada7dbb5e5e6f33f130257acb39c8237c4060405160405180910390a25050565b7f831b9b994401fca9c4ed59f2def8ec13f55ed080f3121b3b325773edd3ddc9e0610b5d816119cf565b60025f9054906101000a900473ffffffffffffffffffffffffffffffffffffffff1673ffffffffffffffffffffffffffffffffffffffff166343945512896040518263ffffffff1660e01b8152600401610bb79190612033565b602060405180830381865afa158015610bd2573d5f5f3e3d5ffd5b505050506040513d601f19601f82011682018060405250810190610bf6919061247d565b610c3757876040517fd78dbdde000000000000000000000000000000000000000000000000000000008152600401610c2e9190612033565b60405180910390fd5b60045f9054906101000a900473ffffffffffffffffffffffffffffffffffffffff1673ffffffffffffffffffffffffffffffffffffffff166343945512896040518263ffffffff1660e01b8152600401610c919190612033565b602060405180830381865afa158015610cac573d5f5f3e3d5ffd5b505050506040513d601f19601f82011682018060405250810190610cd0919061247d565b15610d1257876040517fdac6a43f000000000000000000000000000000000000000000000000000000008152600401610d099190612033565b60405180910390fd5b5f60035f9054906101000a900473ffffffffffffffffffffffffffffffffffffffff1673ffffffffffffffffffffffffffffffffffffffff1663732c2b5a8a6040518263ffffffff1660e01b8152600401610d6d9190612033565b602060405180830381865afa158015610d88573d5f5f3e3d5ffd5b505050506040513d601f19601f82011682018060405250810190610dac9190612616565b90505f60035f9054906101000a900473ffffffffffffffffffffffffffffffffffffffff1673ffffffffffffffffffffffffffffffffffffffff166326fd66048b87876040518463ffffffff1660e01b8152600401610e0d939291906126b9565b602060405180830381865afa158015610e28573d5f5f3e3d5ffd5b505050506040513d601f19601f82011682018060405250810190610e4c9190612616565b905060045f9054906101000a900473ffffffffffffffffffffffffffffffffffffffff1673ffffffffffffffffffffffffffffffffffffffff16637eb45cd78b8b8b8b8b88886040518863ffffffff1660e01b8152600401610eb49796959493929190612724565b5f604051808303815f87803b158015610ecb575f5ffd5b505af1158015610edd573d5f5f3e3d5ffd5b5050505050505050505050505050565b7f577f08e4a510a24c05fb531f78cace5d373d442eb2ba1e22f5bcf2bf4248c21e610f17816119cf565b60025f9054906101000a900473ffffffffffffffffffffffffffffffffffffffff1673ffffffffffffffffffffffffffffffffffffffff166343945512856040518263ffffffff1660e01b8152600401610f719190612033565b602060405180830381865afa158015610f8c573d5f5f3e3d5ffd5b505050506040513d601f19601f82011682018060405250810190610fb0919061247d565b610ff157836040517fd78dbdde000000000000000000000000000000000000000000000000000000008152600401610fe89190612033565b60405180910390fd5b60035f9054906101000a900473ffffffffffffffffffffffffffffffffffffffff1673ffffffffffffffffffffffffffffffffffffffff16637077be7d338686866040518563ffffffff1660e01b81526004016110519493929190612796565b5f604051808303815f87803b158015611068575f5ffd5b505af115801561107a573d5f5f3e3d5ffd5b5050505050505050565b60035f9054906101000a900473ffffffffffffffffffffffffffffffffffffffff1681565b7fa49807205ce4d355092ef5a8a18f56e8913cf4a201fbe287825b095693c2177581565b7fa49807205ce4d355092ef5a8a18f56e8913cf4a201fbe287825b095693c217756110f7816119cf565b5f73ffffffffffffffffffffffffffffffffffffffff168273ffffffffffffffffffffffffffffffffffffffff160361115c576040517f04fa1f8900000000000000000000000000000000000000000000000000000000815260040160405180910390fd5b60025f9054906101000a900473ffffffffffffffffffffffffffffffffffffffff1673ffffffffffffffffffffffffffffffffffffffff168273ffffffffffffffffffffffffffffffffffffffff16036111e2576040517f4b75072100000000000000000000000000000000000000000000000000000000815260040160405180910390fd5b8173ffffffffffffffffffffffffffffffffffffffff166301ffc9a77fa511533d000000000000000000000000000000000000000000000000000000006040518263ffffffff1660e01b815260040161123b9190612450565b602060405180830381865afa158015611256573d5f5f3e3d5ffd5b505050506040513d601f19601f8201168201806040525081019061127a919061247d565b6112bb57816040517f9e8b0a9a0000000000000000000000000000000000000000000000000000000081526004016112b29190612033565b60405180910390fd5b5f60025f9054906101000a900473ffffffffffffffffffffffffffffffffffffffff1690508260025f6101000a81548173ffffffffffffffffffffffffffffffffffffffff021916908373ffffffffffffffffffffffffffffffffffffffff1602179055507f736a87d17187c02a6304330f811e2544b5ef5253dbf350ca6d1e3778f694bf0683826040516113519291906124a8565b60405180910390a1505050565b7f831b9b994401fca9c4ed59f2def8ec13f55ed080f3121b3b325773edd3ddc9e081565b7fa49807205ce4d355092ef5a8a18f56e8913cf4a201fbe287825b095693c217756113ac816119cf565b6113d67f577f08e4a510a24c05fb531f78cace5d373d442eb2ba1e22f5bcf2bf4248c21e836114a8565b61141757816040517ffcdc1ec800000000000000000000000000000000000000000000000000000000815260040161140e9190612033565b60405180910390fd5b60035f9054906101000a900473ffffffffffffffffffffffffffffffffffffffff1673ffffffffffffffffffffffffffffffffffffffff166388b622108585856040518463ffffffff1660e01b8152600401611475939291906127d9565b5f604051808303815f87803b15801561148c575f5ffd5b505af115801561149e573d5f5f3e3d5ffd5b5050505050505050565b5f5f5f8481526020019081526020015f205f015f8373ffffffffffffffffffffffffffffffffffffffff1673ffffffffffffffffffffffffffffffffffffffff1681526020019081526020015f205f9054906101000a900460ff16905092915050565b5f60045f9054906101000a900473ffffffffffffffffffffffffffffffffffffffff16905090565b5f5f1b81565b7fa49807205ce4d355092ef5a8a18f56e8913cf4a201fbe287825b095693c21775611563816119cf565b61158d7f831b9b994401fca9c4ed59f2def8ec13f55ed080f3121b3b325773edd3ddc9e0836119e3565b508173ffffffffffffffffffffffffffffffffffffffff167f7a67dcd3c19b23ebd0f508847a7138b199fb847d7167bf12ad9f00d060fe11aa60405160405180910390a25050565b5f60035f9054906101000a900473ffffffffffffffffffffffffffffffffffffffff16905090565b7fa49807205ce4d355092ef5a8a18f56e8913cf4a201fbe287825b095693c21775611627816119cf565b5f73ffffffffffffffffffffffffffffffffffffffff168273ffffffffffffffffffffffffffffffffffffffff160361168c576040517f04fa1f8900000000000000000000000000000000000000000000000000000000815260040160405180910390fd5b60035f9054906101000a900473ffffffffffffffffffffffffffffffffffffffff1673ffffffffffffffffffffffffffffffffffffffff168273ffffffffffffffffffffffffffffffffffffffff1603611712576040517f4b75072100000000000000000000000000000000000000000000000000000000815260040160405180910390fd5b5f60035f9054906101000a900473ffffffffffffffffffffffffffffffffffffffff1690508260035f6101000a81548173ffffffffffffffffffffffffffffffffffffffff021916908373ffffffffffffffffffffffffffffffffffffffff1602179055507f65022936a9ebe6bf29320fb769e0cdae47dcfb73c86c047c2b65cf2b4f1e4d2e83826040516117a89291906124a8565b60405180910390a1505050565b7f577f08e4a510a24c05fb531f78cace5d373d442eb2ba1e22f5bcf2bf4248c21e81565b7f577f08e4a510a24c05fb531f78cace5d373d442eb2ba1e22f5bcf2bf4248c21e611803816119cf565b60035f9054906101000a900473ffffffffffffffffffffffffffffffffffffffff1673ffffffffffffffffffffffffffffffffffffffff16630e0b841f3385856040518463ffffffff1660e01b815260040161186193929190612815565b5f604051808303815f87803b158015611878575f5ffd5b505af115801561188a573d5f5f3e3d5ffd5b50505050505050565b61189c82610820565b6118a5816119cf565b6118af8383611ad3565b50505050565b600180546118c2906124fc565b80601f01602080910402602001604051908101604052809291908181526020018280546118ee906124fc565b80156119395780601f1061191057610100808354040283529160200191611939565b820191905f5260205f20905b81548152906001019060200180831161191c57829003601f168201915b505050505081565b60045f9054906101000a900473ffffffffffffffffffffffffffffffffffffffff1681565b5f7f01ffc9a7000000000000000000000000000000000000000000000000000000007bffffffffffffffffffffffffffffffffffffffffffffffffffffffff1916827bffffffffffffffffffffffffffffffffffffffffffffffffffffffff1916149050919050565b6119e0816119db611acc565b611bbc565b50565b5f6119ee83836114a8565b611ac25760015f5f8581526020019081526020015f205f015f8473ffffffffffffffffffffffffffffffffffffffff1673ffffffffffffffffffffffffffffffffffffffff1681526020019081526020015f205f6101000a81548160ff021916908315150217905550611a5f611acc565b73ffffffffffffffffffffffffffffffffffffffff168273ffffffffffffffffffffffffffffffffffffffff16847f2f8788117e7eff1d82e926ec794901d17c78024a50270940304540a733656f0d60405160405180910390a460019050611ac6565b5f90505b92915050565b5f33905090565b5f611ade83836114a8565b15611bb2575f5f5f8581526020019081526020015f205f015f8473ffffffffffffffffffffffffffffffffffffffff1673ffffffffffffffffffffffffffffffffffffffff1681526020019081526020015f205f6101000a81548160ff021916908315150217905550611b4f611acc565b73ffffffffffffffffffffffffffffffffffffffff168273ffffffffffffffffffffffffffffffffffffffff16847ff6391f5c32d9c69d2a47ea670b442974b53935d1edc7fd64eb21e047a839171b60405160405180910390a460019050611bb6565b5f90505b92915050565b611bc682826114a8565b611c095780826040517fe2517d3f000000000000000000000000000000000000000000000000000000008152600401611c0092919061284a565b60405180910390fd5b5050565b5f604051905090565b5f5ffd5b5f5ffd5b5f7fffffffff0000000000000000000000000000000000000000000000000000000082169050919050565b611c5281611c1e565b8114611c5c575f5ffd5b50565b5f81359050611c6d81611c49565b92915050565b5f60208284031215611c8857611c87611c16565b5b5f611c9584828501611c5f565b91505092915050565b5f8115159050919050565b611cb281611c9e565b82525050565b5f602082019050611ccb5f830184611ca9565b92915050565b5f73ffffffffffffffffffffffffffffffffffffffff82169050919050565b5f611cfa82611cd1565b9050919050565b611d0a81611cf0565b8114611d14575f5ffd5b50565b5f81359050611d2581611d01565b92915050565b5f60208284031215611d4057611d3f611c16565b5b5f611d4d84828501611d17565b91505092915050565b5f819050919050565b5f611d79611d74611d6f84611cd1565b611d56565b611cd1565b9050919050565b5f611d8a82611d5f565b9050919050565b5f611d9b82611d80565b9050919050565b611dab81611d91565b82525050565b5f602082019050611dc45f830184611da2565b92915050565b5f819050919050565b611ddc81611dca565b8114611de6575f5ffd5b50565b5f81359050611df781611dd3565b92915050565b5f60208284031215611e1257611e11611c16565b5b5f611e1f84828501611de9565b91505092915050565b611e3181611dca565b82525050565b5f602082019050611e4a5f830184611e28565b92915050565b5f5ffd5b5f5ffd5b5f601f19601f8301169050919050565b7f4e487b71000000000000000000000000000000000000000000000000000000005f52604160045260245ffd5b611e9e82611e58565b810181811067ffffffffffffffff82111715611ebd57611ebc611e68565b5b80604052505050565b5f611ecf611c0d565b9050611edb8282611e95565b919050565b5f67ffffffffffffffff821115611efa57611ef9611e68565b5b611f0382611e58565b9050602081019050919050565b828183375f83830152505050565b5f611f30611f2b84611ee0565b611ec6565b905082815260208101848484011115611f4c57611f4b611e54565b5b611f57848285611f10565b509392505050565b5f82601f830112611f7357611f72611e50565b5b8135611f83848260208601611f1e565b91505092915050565b5f5f60408385031215611fa257611fa1611c16565b5b5f611faf85828601611d17565b925050602083013567ffffffffffffffff811115611fd057611fcf611c1a565b5b611fdc85828601611f5f565b9150509250929050565b5f5f60408385031215611ffc57611ffb611c16565b5b5f61200985828601611de9565b925050602061201a85828601611d17565b9150509250929050565b61202d81611cf0565b82525050565b5f6020820190506120465f830184612024565b92915050565b5f5ffd5b5f5ffd5b5f5f83601f84011261206957612068611e50565b5b8235905067ffffffffffffffff8111156120865761208561204c565b5b6020830191508360018202830111156120a2576120a1612050565b5b9250929050565b5f5f83601f8401126120be576120bd611e50565b5b8235905067ffffffffffffffff8111156120db576120da61204c565b5b6020830191508360208202830111156120f7576120f6612050565b5b9250929050565b5f5f5f5f5f5f5f6080888a03121561211957612118611c16565b5b5f6121268a828b01611d17565b975050602088013567ffffffffffffffff81111561214757612146611c1a565b5b6121538a828b01612054565b9650965050604088013567ffffffffffffffff81111561217657612175611c1a565b5b6121828a828b01612054565b9450945050606088013567ffffffffffffffff8111156121a5576121a4611c1a565b5b6121b18a828b016120a9565b925092505092959891949750929550565b5f819050919050565b6121d4816121c2565b81146121de575f5ffd5b50565b5f813590506121ef816121cb565b92915050565b5f60ff82169050919050565b61220a816121f5565b8114612214575f5ffd5b50565b5f8135905061222581612201565b92915050565b5f5f5f6060848603121561224257612241611c16565b5b5f61224f86828701611d17565b9350506020612260868287016121e1565b925050604061227186828701612217565b9150509250925092565b5f61228582611d80565b9050919050565b6122958161227b565b82525050565b5f6020820190506122ae5f83018461228c565b92915050565b5f5f5f606084860312156122cb576122ca611c16565b5b5f84013567ffffffffffffffff8111156122e8576122e7611c1a565b5b6122f486828701611f5f565b935050602061230586828701612217565b925050604061231686828701611d17565b9150509250925092565b61232981611c9e565b8114612333575f5ffd5b50565b5f8135905061234481612320565b92915050565b5f5f604083850312156123605761235f611c16565b5b5f61236d858286016121e1565b925050602061237e85828601612336565b9150509250929050565b5f81519050919050565b5f82825260208201905092915050565b8281835e5f83830152505050565b5f6123ba82612388565b6123c48185612392565b93506123d48185602086016123a2565b6123dd81611e58565b840191505092915050565b5f6020820190508181035f83015261240081846123b0565b905092915050565b5f61241282611d80565b9050919050565b61242281612408565b82525050565b5f60208201905061243b5f830184612419565b92915050565b61244a81611c1e565b82525050565b5f6020820190506124635f830184612441565b92915050565b5f8151905061247781612320565b92915050565b5f6020828403121561249257612491611c16565b5b5f61249f84828501612469565b91505092915050565b5f6040820190506124bb5f830185612024565b6124c86020830184612024565b9392505050565b7f4e487b71000000000000000000000000000000000000000000000000000000005f52602260045260245ffd5b5f600282049050600182168061251357607f821691505b602082108103612526576125256124cf565b5b50919050565b5f819050815f5260205f209050919050565b5f815461254a816124fc565b6125548186612392565b9450600182165f811461256e5760018114612584576125b6565b60ff1983168652811515602002860193506125b6565b61258d8561252c565b5f5b838110156125ae5781548189015260018201915060208101905061258f565b808801955050505b50505092915050565b5f6060820190506125d25f830186612024565b81810360208301526125e4818561253e565b905081810360408301526125f881846123b0565b9050949350505050565b5f81519050612610816121cb565b92915050565b5f6020828403121561262b5761262a611c16565b5b5f61263884828501612602565b91505092915050565b5f82825260208201905092915050565b5f5ffd5b82818337505050565b5f6126698385612641565b93507f07ffffffffffffffffffffffffffffffffffffffffffffffffffffffffffffff83111561269c5761269b612651565b5b6020830292506126ad838584612655565b82840190509392505050565b5f6040820190506126cc5f830186612024565b81810360208301526126df81848661265e565b9050949350505050565b5f6126f48385612392565b9350612701838584611f10565b61270a83611e58565b840190509392505050565b61271e816121c2565b82525050565b5f60a0820190506127375f83018a612024565b818103602083015261274a81888a6126e9565b9050818103604083015261275f8186886126e9565b905061276e6060830185612715565b61277b6080830184612715565b98975050505050505050565b612790816121f5565b82525050565b5f6080820190506127a95f830187612024565b6127b66020830186612024565b6127c36040830185612715565b6127d06060830184612787565b95945050505050565b5f6060820190508181035f8301526127f181866123b0565b90506128006020830185612787565b61280d6040830184612024565b949350505050565b5f6060820190506128285f830186612024565b6128356020830185612715565b6128426040830184611ca9565b949350505050565b5f60408201905061285d5f830185612024565b61286a6020830184611e28565b939250505056fea26469706673582212202589a46fa23964bc13d1661a896e2c2967896b2861cb1cfa399e2c5badfb6b8064736f6c634300081e0033","linkReferences":{}},"methodIdentifiers":{"ADMIN_ROLE()":"75b238fc","DEFAULT_ADMIN_ROLE()":"a217fddf","DIPLOMA_ISSUER_ROLE()":"7fbf450c","PROFESSOR_ROLE()":"c81cf771","addDiplomaIssuer(address)":"b940e8dc","addProfessor(address)":"4268edaa","addSubject(string,uint8,address)":"88b62210","enrollStudent(address,string)":"261d822f","getCertificationContract()":"a09e0d90","getGradebookContract()":"bd3b5172","getRoleAdmin(bytes32)":"248a9ca3","getStudentRegistryContract()":"3719ea1f","grantRole(bytes32,address)":"2f2ff15d","hasRole(bytes32,address)":"91d14854","issueDiploma(address,string,string,uint256[])":"4ffc2dd2","postGrade(address,uint256,uint8)":"53b65f77","renounceRole(bytes32,address)":"36568abe","revokeRole(bytes32,address)":"d547741f","s_certificationContract()":"f8df4872","s_facultyName()":"f39ed26e","s_gradebookContract()":"6688f193","s_studentRegistryContract()":"216a9af8","setCertificationContract(address)":"1985f45f","setGradebookContract(address)":"c7689ef2","setStudentRegistryContract(address)":"795fa5a7","setSubjectActivity(uint256,bool)":"d17d65e1","supportsInterface(bytes4)":"01ffc9a7"},"id":33}