{"abi":[{"type":"constructor","inputs":[{"name":"facultyName","type":"string","internalType":"string"},{"name":"owner","type":"address","internalType":"address"}],"stateMutability":"nonpayable"},{"type":"function","name":"ADMIN_ROLE","inputs":[],"outputs":[{"name":"","type":"bytes32","internalType":"bytes32"}],"stateMutability":"view"},{"type":"function","name":"DEFAULT_ADMIN_ROLE","inputs":[],"outputs":[{"name":"","type":"bytes32","internalType":"bytes32"}],"stateMutability":"view"},{"type":"function","name":"DIPLOMA_ISSUER_ROLE","inputs":[],"outputs":[{"name":"","type":"bytes32","internalType":"bytes32"}],"stateMutability":"view"},{"type":"function","name":"PROFESSOR_ROLE","inputs":[],"outputs":[{"name":"","type":"bytes32","internalType":"bytes32"}],"stateMutability":"view"},{"type":"function","name":"addDiplomaIssuer","inputs":[{"name":"issuer","type":"address","internalType":"address"}],"outputs":[],"stateMutability":"nonpayable"},{"type":"function","name":"addProfessor","inputs":[{"name":"professor","type":"address","internalType":"address"}],"outputs":[],"stateMutability":"nonpayable"},{"type":"function","name":"enrollStudent","inputs":[{"name":"student","type":"address","internalType":"address"},{"name":"registrationNumber","type":"string","internalType":"string"}],"outputs":[],"stateMutability":"nonpayable"},{"type":"function","name":"getCertificationContract","inputs":[],"outputs":[{"name":"","type":"address","internalType":"address"}],"stateMutability":"view"},{"type":"function","name":"getGradebookContract","inputs":[],"outputs":[{"name":"","type":"address","internalType":"address"}],"stateMutability":"view"},{"type":"function","name":"getRoleAdmin","inputs":[{"name":"role","type":"bytes32","internalType":"bytes32"}],"outputs":[{"name":"","type":"bytes32","internalType":"bytes32"}],"stateMutability":"view"},{"type":"function","name":"getStudentRegistryContract","inputs":[],"outputs":[{"name":"","type":"address","internalType":"address"}],"stateMutability":"view"},{"type":"function","name":"grantRole","inputs":[{"name":"role","type":"bytes32","internalType":"bytes32"},{"name":"account","type":"address","internalType":"address"}],"outputs":[],"stateMutability":"nonpayable"},{"type":"function","name":"hasRole","inputs":[{"name":"role","type":"bytes32","internalType":"bytes32"},{"name":"account","type":"address","internalType":"address"}],"outputs":[{"name":"","type":"bool","internalType":"bool"}],"stateMutability":"view"},{"type":"function","name":"issueDiploma","inputs":[{"name":"student","type":"address","internalType":"address"},{"name":"degreeTitle","type":"string","internalType":"string"},{"name":"major","type":"string","internalType":"string"},{"name":"subjectIds","type":"uint256[]","internalType":"uint256[]"}],"outputs":[],"stateMutability":"nonpayable"},{"type":"function","name":"postGrade","inputs":[{"name":"student","type":"address","internalType":"address"},{"name":"subjectId","type":"uint256","internalType":"uint256"},{"name":"grade","type":"uint8","internalType":"uint8"}],"outputs":[],"stateMutability":"nonpayable"},{"type":"function","name":"renounceRole","inputs":[{"name":"role","type":"bytes32","internalType":"bytes32"},{"name":"callerConfirmation","type":"address","internalType":"address"}],"outputs":[],"stateMutability":"nonpayable"},{"type":"function","name":"revokeRole","inputs":[{"name":"role","type":"bytes32","internalType":"bytes32"},{"name":"account","type":"address","internalType":"address"}],"outputs":[],"stateMutability":"nonpayable"},{"type":"function","name":"s_certificationContract","inputs":[],"outputs":[{"name":"","type":"address","internalType":"contract ICertification"}],"stateMutability":"view"},{"type":"function","name":"s_facultyName","inputs":[],"outputs":[{"name":"","type":"string","internalType":"string"}],"stateMutability":"view"},{"type":"function","name":"s_gradebookContract","inputs":[],"outputs":[{"name":"","type":"address","internalType":"contract IGradebook"}],"stateMutability":"view"},{"type":"function","name":"s_studentRegistryContract","inputs":[],"outputs":[{"name":"","type":"address","internalType":"contract IStudentRegistry"}],"stateMutability":"view"},{"type":"function","name":"setCertificationContract","inputs":[{"name":"certificationContract","type":"address","internalType":"address"}],"outputs":[],"stateMutability":"nonpayable"},{"type":"function","name":"setGradebookContract","inputs":[{"name":"gradebookContract","type":"address","internalType":"address"}],"outputs":[],"stateMutability":"nonpayable"},{"type":"function","name":"setStudentRegistryContract","inputs":[{"name":"studentRegistryContract","type":"address","internalType":"address"}],"outputs":[],"stateMutability":"nonpayable"},{"type":"function","name":"setSubjectActivity","inputs":[{"name":"subjectId","type":"uint256","internalType":"uint256"},{"name":"isActive","type":"bool","internalType":"bool"}],"outputs":[],"stateMutability":"nonpayable"},{"type":"function","name":"supportsInterface","inputs":[{"name":"interfaceId","type":"bytes4","internalType":"bytes4"}],"outputs":[{"name":"","type":"bool","internalType":"bool"}],"stateMutability":"view"},{"type":"event","name":"CertificationContractSet","inputs":[{"name":"newCertificationContract","type":"address","indexed":false,"internalType":"address"},{"name":"oldCertificationContract","type":"address","indexed":false,"internalType":"address"}],"anonymous":false},{"type":"event","name":"DiplomaIssuerAdded","inputs":[{"name":"issuer","type":"address","indexed":true,"internalType":"address"}],"anonymous":false},{"type":"event","name":"FacultyNameSet","inputs":[{"name":"facultyName","type":"string","indexed":false,"internalType":"string"}],"anonymous":false},{"type":"event","name":"GradebookContractSet","inputs":[{"name":"newGradebookContract","type":"address","indexed":false,"internalType":"address"},{"name":"oldGradebookContract","type":"address","indexed":false,"internalType":"address"}],"anonymous":false},{"type":"event","name":"ProfessorAdded","inputs":[{"name":"professor","type":"address","indexed":true,"internalType":"address"}],"anonymous":false},{"type":"event","name":"RoleAdminChanged","inputs":[{"name":"role","type":"bytes32","indexed":true,"internalType":"bytes32"},{"name":"previousAdminRole","type":"bytes32","indexed":true,"internalType":"bytes32"},{"name":"newAdminRole","type":"bytes32","indexed":true,"internalType":"bytes32"}],"anonymous":false},{"type":"event","name":"RoleGranted","inputs":[{"name":"role","type":"bytes32","indexed":true,"internalType":"bytes32"},{"name":"account","type":"address","indexed":true,"internalType":"address"},{"name":"sender","type":"address","indexed":true,"internalType":"address"}],"anonymous":false},{"type":"event","name":"RoleRevoked","inputs":[{"name":"role","type":"bytes32","indexed":true,"internalType":"bytes32"},{"name":"account","type":"address","indexed":true,"internalType":"address"},{"name":"sender","type":"address","indexed":true,"internalType":"address"}],"anonymous":false},{"type":"event","name":"StudentRegistryContractSet","inputs":[{"name":"newStudentRegistryContract","type":"address","indexed":false,"internalType":"address"},{"name":"oldStudentRegistryContract","type":"address","indexed":false,"internalType":"address"}],"anonymous":false},{"type":"error","name":"AccessControlBadConfirmation","inputs":[]},{"type":"error","name":"AccessControlUnauthorizedAccount","inputs":[{"name":"account","type":"address","internalType":"address"},{"name":"neededRole","type":"bytes32","internalType":"bytes32"}]},{"type":"error","name":"UniversityCore__AddressZero","inputs":[]},{"type":"error","name":"UniversityCore__ContractDoesNotSupportIERC4671","inputs":[{"name":"verifiedContract","type":"address","internalType":"address"}]},{"type":"error","name":"UniversityCore__FacultyNameZero","inputs":[]},{"type":"error","name":"UniversityCore__SameAddress","inputs":[]},{"type":"error","name":"UniversityCore__StudentAlreadyHasDiploma","inputs":[{"name":"student","type":"address","internalType":"address"}]},{"type":"error","name":"UniversityCore__StudentEnrolledAlready","inputs":[{"name":"student","type":"address","internalType":"address"}]},{"type":"error","name":"UniversityCore__StudentIsNotEnrolled","inputs":[{"name":"student","type":"address","internalType":"address"}]}],"bytecode":{"object":"0x608060405234801561000f575f5ffd5b50604051612eb8380380612eb883398181016040528101906100319190610468565b5f73ffffffffffffffffffffffffffffffffffffffff168173ffffffffffffffffffffffffffffffffffffffff1603610096576040517f04fa1f8900000000000000000000000000000000000000000000000000000000815260040160405180910390fd5b5f8251036100d0576040517fbdaec2c200000000000000000000000000000000000000000000000000000000815260040160405180910390fd5b81600190816100df91906106d2565b507f8dc167bc30400287aaa8e01cf4e9530dc130b48b2e1a7e7d729d037539d828f18260405161010f91906107e9565b60405180910390a16101295f5f1b8261016260201b60201c565b5061015a7fa49807205ce4d355092ef5a8a18f56e8913cf4a201fbe287825b095693c217758261016260201b60201c565b505050610809565b5f610173838361025760201b60201c565b61024d5760015f5f8581526020019081526020015f205f015f8473ffffffffffffffffffffffffffffffffffffffff1673ffffffffffffffffffffffffffffffffffffffff1681526020019081526020015f205f6101000a81548160ff0219169083151502179055506101ea6102ba60201b60201c565b73ffffffffffffffffffffffffffffffffffffffff168273ffffffffffffffffffffffffffffffffffffffff16847f2f8788117e7eff1d82e926ec794901d17c78024a50270940304540a733656f0d60405160405180910390a460019050610251565b5f90505b92915050565b5f5f5f8481526020019081526020015f205f015f8373ffffffffffffffffffffffffffffffffffffffff1673ffffffffffffffffffffffffffffffffffffffff1681526020019081526020015f205f9054906101000a900460ff16905092915050565b5f33905090565b5f604051905090565b5f5ffd5b5f5ffd5b5f5ffd5b5f5ffd5b5f601f19601f8301169050919050565b7f4e487b71000000000000000000000000000000000000000000000000000000005f52604160045260245ffd5b610320826102da565b810181811067ffffffffffffffff8211171561033f5761033e6102ea565b5b80604052505050565b5f6103516102c1565b905061035d8282610317565b919050565b5f67ffffffffffffffff82111561037c5761037b6102ea565b5b610385826102da565b9050602081019050919050565b8281835e5f83830152505050565b5f6103b26103ad84610362565b610348565b9050828152602081018484840111156103ce576103cd6102d6565b5b6103d9848285610392565b509392505050565b5f82601f8301126103f5576103f46102d2565b5b81516104058482602086016103a0565b91505092915050565b5f73ffffffffffffffffffffffffffffffffffffffff82169050919050565b5f6104378261040e565b9050919050565b6104478161042d565b8114610451575f5ffd5b50565b5f815190506104628161043e565b92915050565b5f5f6040838503121561047e5761047d6102ca565b5b5f83015167ffffffffffffffff81111561049b5761049a6102ce565b5b6104a7858286016103e1565b92505060206104b885828601610454565b9150509250929050565b5f81519050919050565b7f4e487b71000000000000000000000000000000000000000000000000000000005f52602260045260245ffd5b5f600282049050600182168061051057607f821691505b602082108103610523576105226104cc565b5b50919050565b5f819050815f5260205f209050919050565b5f6020601f8301049050919050565b5f82821b905092915050565b5f600883026105857fffffffffffffffffffffffffffffffffffffffffffffffffffffffffffffffff8261054a565b61058f868361054a565b95508019841693508086168417925050509392505050565b5f819050919050565b5f819050919050565b5f6105d36105ce6105c9846105a7565b6105b0565b6105a7565b9050919050565b5f819050919050565b6105ec836105b9565b6106006105f8826105da565b848454610556565b825550505050565b5f5f905090565b610617610608565b6106228184846105e3565b505050565b5b818110156106455761063a5f8261060f565b600181019050610628565b5050565b601f82111561068a5761065b81610529565b6106648461053b565b81016020851015610673578190505b61068761067f8561053b565b830182610627565b50505b505050565b5f82821c905092915050565b5f6106aa5f198460080261068f565b1980831691505092915050565b5f6106c2838361069b565b9150826002028217905092915050565b6106db826104c2565b67ffffffffffffffff8111156106f4576106f36102ea565b5b6106fe82546104f9565b610709828285610649565b5f60209050601f83116001811461073a575f8415610728578287015190505b61073285826106b7565b865550610799565b601f19841661074886610529565b5f5b8281101561076f5784890151825560018201915060208501945060208101905061074a565b8683101561078c5784890151610788601f89168261069b565b8355505b6001600288020188555050505b505050505050565b5f82825260208201905092915050565b5f6107bb826104c2565b6107c581856107a1565b93506107d5818560208601610392565b6107de816102da565b840191505092915050565b5f6020820190508181035f83015261080181846107b1565b905092915050565b6126a2806108165f395ff3fe608060405234801561000f575f5ffd5b506004361061018c575f3560e01c8063795fa5a7116100dc578063bd3b517211610095578063d17d65e11161006f578063d17d65e114610446578063d547741f14610462578063f39ed26e1461047e578063f8df48721461049c5761018c565b8063bd3b5172146103ee578063c7689ef21461040c578063c81cf771146104285761018c565b8063795fa5a71461032c5780637fbf450c1461034857806391d1485414610366578063a09e0d9014610396578063a217fddf146103b4578063b940e8dc146103d25761018c565b806336568abe116101495780634ffc2dd2116101235780634ffc2dd2146102b857806353b65f77146102d45780636688f193146102f057806375b238fc1461030e5761018c565b806336568abe146102625780633719ea1f1461027e5780634268edaa1461029c5761018c565b806301ffc9a7146101905780631985f45f146101c0578063216a9af8146101dc578063248a9ca3146101fa578063261d822f1461022a5780632f2ff15d14610246575b5f5ffd5b6101aa60048036038101906101a59190611b16565b6104ba565b6040516101b79190611b5b565b60405180910390f35b6101da60048036038101906101d59190611bce565b610533565b005b6101e46107c4565b6040516101f19190611c54565b60405180910390f35b610214600480360381019061020f9190611ca0565b6107e9565b6040516102219190611cda565b60405180910390f35b610244600480360381019061023f9190611e2f565b610805565b005b610260600480360381019061025b9190611e89565b61099b565b005b61027c60048036038101906102779190611e89565b6109bd565b005b610286610a38565b6040516102939190611ed6565b60405180910390f35b6102b660048036038101906102b19190611bce565b610a60565b005b6102d260048036038101906102cd9190611fa1565b610afc565b005b6102ee60048036038101906102e991906120ce565b610eb6565b005b6102f861104d565b604051610305919061213e565b60405180910390f35b610316611072565b6040516103239190611cda565b60405180910390f35b61034660048036038101906103419190611bce565b611096565b005b610350611327565b60405161035d9190611cda565b60405180910390f35b610380600480360381019061037b9190611e89565b61134b565b60405161038d9190611b5b565b60405180910390f35b61039e6113ae565b6040516103ab9190611ed6565b60405180910390f35b6103bc6113d6565b6040516103c99190611cda565b60405180910390f35b6103ec60048036038101906103e79190611bce565b6113dc565b005b6103f6611478565b6040516104039190611ed6565b60405180910390f35b61042660048036038101906104219190611bce565b6114a0565b005b610430611658565b60405161043d9190611cda565b60405180910390f35b610460600480360381019061045b9190612181565b61167c565b005b61047c60048036038101906104779190611e89565b611736565b005b610486611758565b604051610493919061221f565b60405180910390f35b6104a46117e4565b6040516104b1919061225f565b60405180910390f35b5f7f7965db0b000000000000000000000000000000000000000000000000000000007bffffffffffffffffffffffffffffffffffffffffffffffffffffffff1916827bffffffffffffffffffffffffffffffffffffffffffffffffffffffff1916148061052c575061052b82611809565b5b9050919050565b7fa49807205ce4d355092ef5a8a18f56e8913cf4a201fbe287825b095693c2177561055d81611872565b5f73ffffffffffffffffffffffffffffffffffffffff168273ffffffffffffffffffffffffffffffffffffffff16036105c2576040517f04fa1f8900000000000000000000000000000000000000000000000000000000815260040160405180910390fd5b60045f9054906101000a900473ffffffffffffffffffffffffffffffffffffffff1673ffffffffffffffffffffffffffffffffffffffff168273ffffffffffffffffffffffffffffffffffffffff1603610648576040517f4b75072100000000000000000000000000000000000000000000000000000000815260040160405180910390fd5b8173ffffffffffffffffffffffffffffffffffffffff166301ffc9a77fa511533d000000000000000000000000000000000000000000000000000000006040518263ffffffff1660e01b81526004016106a19190612287565b602060405180830381865afa1580156106bc573d5f5f3e3d5ffd5b505050506040513d601f19601f820116820180604052508101906106e091906122b4565b61072157816040517f9e8b0a9a0000000000000000000000000000000000000000000000000000000081526004016107189190611ed6565b60405180910390fd5b5f60045f9054906101000a900473ffffffffffffffffffffffffffffffffffffffff1690508260045f6101000a81548173ffffffffffffffffffffffffffffffffffffffff021916908373ffffffffffffffffffffffffffffffffffffffff1602179055507f31c0a2bb738c5dcea2d5bfa9b27c441c4b886bff19611b9ce208130adc20c2e283826040516107b79291906122df565b60405180910390a1505050565b60025f9054906101000a900473ffffffffffffffffffffffffffffffffffffffff1681565b5f5f5f8381526020019081526020015f20600101549050919050565b7fa49807205ce4d355092ef5a8a18f56e8913cf4a201fbe287825b095693c2177561082f81611872565b60025f9054906101000a900473ffffffffffffffffffffffffffffffffffffffff1673ffffffffffffffffffffffffffffffffffffffff166343945512846040518263ffffffff1660e01b81526004016108899190611ed6565b602060405180830381865afa1580156108a4573d5f5f3e3d5ffd5b505050506040513d601f19601f820116820180604052508101906108c891906122b4565b1561090a57826040517f7b0cb0c10000000000000000000000000000000000000000000000000000000081526004016109019190611ed6565b60405180910390fd5b60025f9054906101000a900473ffffffffffffffffffffffffffffffffffffffff1673ffffffffffffffffffffffffffffffffffffffff16637d853e7f846001856040518463ffffffff1660e01b8152600401610969939291906123f6565b5f604051808303815f87803b158015610980575f5ffd5b505af1158015610992573d5f5f3e3d5ffd5b50505050505050565b6109a4826107e9565b6109ad81611872565b6109b78383611886565b50505050565b6109c561196f565b73ffffffffffffffffffffffffffffffffffffffff168173ffffffffffffffffffffffffffffffffffffffff1614610a29576040517f6697b23200000000000000000000000000000000000000000000000000000000815260040160405180910390fd5b610a338282611976565b505050565b5f60025f9054906101000a900473ffffffffffffffffffffffffffffffffffffffff16905090565b7fa49807205ce4d355092ef5a8a18f56e8913cf4a201fbe287825b095693c21775610a8a81611872565b610ab47f577f08e4a510a24c05fb531f78cace5d373d442eb2ba1e22f5bcf2bf4248c21e83611886565b508173ffffffffffffffffffffffffffffffffffffffff167fc314a8ab46f679df157d309facb47ada7dbb5e5e6f33f130257acb39c8237c4060405160405180910390a25050565b7f831b9b994401fca9c4ed59f2def8ec13f55ed080f3121b3b325773edd3ddc9e0610b2681611872565b60025f9054906101000a900473ffffffffffffffffffffffffffffffffffffffff1673ffffffffffffffffffffffffffffffffffffffff166343945512896040518263ffffffff1660e01b8152600401610b809190611ed6565b602060405180830381865afa158015610b9b573d5f5f3e3d5ffd5b505050506040513d601f19601f82011682018060405250810190610bbf91906122b4565b610c0057876040517fd78dbdde000000000000000000000000000000000000000000000000000000008152600401610bf79190611ed6565b60405180910390fd5b60045f9054906101000a900473ffffffffffffffffffffffffffffffffffffffff1673ffffffffffffffffffffffffffffffffffffffff166343945512896040518263ffffffff1660e01b8152600401610c5a9190611ed6565b602060405180830381865afa158015610c75573d5f5f3e3d5ffd5b505050506040513d601f19601f82011682018060405250810190610c9991906122b4565b15610cdb57876040517fdac6a43f000000000000000000000000000000000000000000000000000000008152600401610cd29190611ed6565b60405180910390fd5b5f60035f9054906101000a900473ffffffffffffffffffffffffffffffffffffffff1673ffffffffffffffffffffffffffffffffffffffff1663732c2b5a8a6040518263ffffffff1660e01b8152600401610d369190611ed6565b602060405180830381865afa158015610d51573d5f5f3e3d5ffd5b505050506040513d601f19601f82011682018060405250810190610d75919061244d565b90505f60035f9054906101000a900473ffffffffffffffffffffffffffffffffffffffff1673ffffffffffffffffffffffffffffffffffffffff166326fd66048b87876040518463ffffffff1660e01b8152600401610dd6939291906124f0565b602060405180830381865afa158015610df1573d5f5f3e3d5ffd5b505050506040513d601f19601f82011682018060405250810190610e15919061244d565b905060045f9054906101000a900473ffffffffffffffffffffffffffffffffffffffff1673ffffffffffffffffffffffffffffffffffffffff16637eb45cd78b8b8b8b8b88886040518863ffffffff1660e01b8152600401610e7d979695949392919061255b565b5f604051808303815f87803b158015610e94575f5ffd5b505af1158015610ea6573d5f5f3e3d5ffd5b5050505050505050505050505050565b7f577f08e4a510a24c05fb531f78cace5d373d442eb2ba1e22f5bcf2bf4248c21e610ee081611872565b60025f9054906101000a900473ffffffffffffffffffffffffffffffffffffffff1673ffffffffffffffffffffffffffffffffffffffff166343945512856040518263ffffffff1660e01b8152600401610f3a9190611ed6565b602060405180830381865afa158015610f55573d5f5f3e3d5ffd5b505050506040513d601f19601f82011682018060405250810190610f7991906122b4565b610fba57836040517fd78dbdde000000000000000000000000000000000000000000000000000000008152600401610fb19190611ed6565b60405180910390fd5b60035f9054906101000a900473ffffffffffffffffffffffffffffffffffffffff1673ffffffffffffffffffffffffffffffffffffffff16637077be7d338686866040518563ffffffff1660e01b815260040161101a94939291906125cd565b5f604051808303815f87803b158015611031575f5ffd5b505af1158015611043573d5f5f3e3d5ffd5b5050505050505050565b60035f9054906101000a900473ffffffffffffffffffffffffffffffffffffffff1681565b7fa49807205ce4d355092ef5a8a18f56e8913cf4a201fbe287825b095693c2177581565b7fa49807205ce4d355092ef5a8a18f56e8913cf4a201fbe287825b095693c217756110c081611872565b5f73ffffffffffffffffffffffffffffffffffffffff168273ffffffffffffffffffffffffffffffffffffffff1603611125576040517f04fa1f8900000000000000000000000000000000000000000000000000000000815260040160405180910390fd5b60025f9054906101000a900473ffffffffffffffffffffffffffffffffffffffff1673ffffffffffffffffffffffffffffffffffffffff168273ffffffffffffffffffffffffffffffffffffffff16036111ab576040517f4b75072100000000000000000000000000000000000000000000000000000000815260040160405180910390fd5b8173ffffffffffffffffffffffffffffffffffffffff166301ffc9a77fa511533d000000000000000000000000000000000000000000000000000000006040518263ffffffff1660e01b81526004016112049190612287565b602060405180830381865afa15801561121f573d5f5f3e3d5ffd5b505050506040513d601f19601f8201168201806040525081019061124391906122b4565b61128457816040517f9e8b0a9a00000000000000000000000000000000000000000000000000000000815260040161127b9190611ed6565b60405180910390fd5b5f60025f9054906101000a900473ffffffffffffffffffffffffffffffffffffffff1690508260025f6101000a81548173ffffffffffffffffffffffffffffffffffffffff021916908373ffffffffffffffffffffffffffffffffffffffff1602179055507f736a87d17187c02a6304330f811e2544b5ef5253dbf350ca6d1e3778f694bf06838260405161131a9291906122df565b60405180910390a1505050565b7f831b9b994401fca9c4ed59f2def8ec13f55ed080f3121b3b325773edd3ddc9e081565b5f5f5f8481526020019081526020015f205f015f8373ffffffffffffffffffffffffffffffffffffffff1673ffffffffffffffffffffffffffffffffffffffff1681526020019081526020015f205f9054906101000a900460ff16905092915050565b5f60045f9054906101000a900473ffffffffffffffffffffffffffffffffffffffff16905090565b5f5f1b81565b7fa49807205ce4d355092ef5a8a18f56e8913cf4a201fbe287825b095693c2177561140681611872565b6114307f831b9b994401fca9c4ed59f2def8ec13f55ed080f3121b3b325773edd3ddc9e083611886565b508173ffffffffffffffffffffffffffffffffffffffff167f7a67dcd3c19b23ebd0f508847a7138b199fb847d7167bf12ad9f00d060fe11aa60405160405180910390a25050565b5f60035f9054906101000a900473ffffffffffffffffffffffffffffffffffffffff16905090565b7fa49807205ce4d355092ef5a8a18f56e8913cf4a201fbe287825b095693c217756114ca81611872565b5f73ffffffffffffffffffffffffffffffffffffffff168273ffffffffffffffffffffffffffffffffffffffff160361152f576040517f04fa1f8900000000000000000000000000000000000000000000000000000000815260040160405180910390fd5b60035f9054906101000a900473ffffffffffffffffffffffffffffffffffffffff1673ffffffffffffffffffffffffffffffffffffffff168273ffffffffffffffffffffffffffffffffffffffff16036115b5576040517f4b75072100000000000000000000000000000000000000000000000000000000815260040160405180910390fd5b5f60035f9054906101000a900473ffffffffffffffffffffffffffffffffffffffff1690508260035f6101000a81548173ffffffffffffffffffffffffffffffffffffffff021916908373ffffffffffffffffffffffffffffffffffffffff1602179055507f65022936a9ebe6bf29320fb769e0cdae47dcfb73c86c047c2b65cf2b4f1e4d2e838260405161164b9291906122df565b60405180910390a1505050565b7f577f08e4a510a24c05fb531f78cace5d373d442eb2ba1e22f5bcf2bf4248c21e81565b7f577f08e4a510a24c05fb531f78cace5d373d442eb2ba1e22f5bcf2bf4248c21e6116a681611872565b60035f9054906101000a900473ffffffffffffffffffffffffffffffffffffffff1673ffffffffffffffffffffffffffffffffffffffff16630e0b841f3385856040518463ffffffff1660e01b815260040161170493929190612610565b5f604051808303815f87803b15801561171b575f5ffd5b505af115801561172d573d5f5f3e3d5ffd5b50505050505050565b61173f826107e9565b61174881611872565b6117528383611976565b50505050565b6001805461176590612333565b80601f016020809104026020016040519081016040528092919081815260200182805461179190612333565b80156117dc5780601f106117b3576101008083540402835291602001916117dc565b820191905f5260205f20905b8154815290600101906020018083116117bf57829003601f168201915b505050505081565b60045f9054906101000a900473ffffffffffffffffffffffffffffffffffffffff1681565b5f7f01ffc9a7000000000000000000000000000000000000000000000000000000007bffffffffffffffffffffffffffffffffffffffffffffffffffffffff1916827bffffffffffffffffffffffffffffffffffffffffffffffffffffffff1916149050919050565b6118838161187e61196f565b611a5f565b50565b5f611891838361134b565b6119655760015f5f8581526020019081526020015f205f015f8473ffffffffffffffffffffffffffffffffffffffff1673ffffffffffffffffffffffffffffffffffffffff1681526020019081526020015f205f6101000a81548160ff02191690831515021790555061190261196f565b73ffffffffffffffffffffffffffffffffffffffff168273ffffffffffffffffffffffffffffffffffffffff16847f2f8788117e7eff1d82e926ec794901d17c78024a50270940304540a733656f0d60405160405180910390a460019050611969565b5f90505b92915050565b5f33905090565b5f611981838361134b565b15611a55575f5f5f8581526020019081526020015f205f015f8473ffffffffffffffffffffffffffffffffffffffff1673ffffffffffffffffffffffffffffffffffffffff1681526020019081526020015f205f6101000a81548160ff0219169083151502179055506119f261196f565b73ffffffffffffffffffffffffffffffffffffffff168273ffffffffffffffffffffffffffffffffffffffff16847ff6391f5c32d9c69d2a47ea670b442974b53935d1edc7fd64eb21e047a839171b60405160405180910390a460019050611a59565b5f90505b92915050565b611a69828261134b565b611aac5780826040517fe2517d3f000000000000000000000000000000000000000000000000000000008152600401611aa3929190612645565b60405180910390fd5b5050565b5f604051905090565b5f5ffd5b5f5ffd5b5f7fffffffff0000000000000000000000000000000000000000000000000000000082169050919050565b611af581611ac1565b8114611aff575f5ffd5b50565b5f81359050611b1081611aec565b92915050565b5f60208284031215611b2b57611b2a611ab9565b5b5f611b3884828501611b02565b91505092915050565b5f8115159050919050565b611b5581611b41565b82525050565b5f602082019050611b6e5f830184611b4c565b92915050565b5f73ffffffffffffffffffffffffffffffffffffffff82169050919050565b5f611b9d82611b74565b9050919050565b611bad81611b93565b8114611bb7575f5ffd5b50565b5f81359050611bc881611ba4565b92915050565b5f60208284031215611be357611be2611ab9565b5b5f611bf084828501611bba565b91505092915050565b5f819050919050565b5f611c1c611c17611c1284611b74565b611bf9565b611b74565b9050919050565b5f611c2d82611c02565b9050919050565b5f611c3e82611c23565b9050919050565b611c4e81611c34565b82525050565b5f602082019050611c675f830184611c45565b92915050565b5f819050919050565b611c7f81611c6d565b8114611c89575f5ffd5b50565b5f81359050611c9a81611c76565b92915050565b5f60208284031215611cb557611cb4611ab9565b5b5f611cc284828501611c8c565b91505092915050565b611cd481611c6d565b82525050565b5f602082019050611ced5f830184611ccb565b92915050565b5f5ffd5b5f5ffd5b5f601f19601f8301169050919050565b7f4e487b71000000000000000000000000000000000000000000000000000000005f52604160045260245ffd5b611d4182611cfb565b810181811067ffffffffffffffff82111715611d6057611d5f611d0b565b5b80604052505050565b5f611d72611ab0565b9050611d7e8282611d38565b919050565b5f67ffffffffffffffff821115611d9d57611d9c611d0b565b5b611da682611cfb565b9050602081019050919050565b828183375f83830152505050565b5f611dd3611dce84611d83565b611d69565b905082815260208101848484011115611def57611dee611cf7565b5b611dfa848285611db3565b509392505050565b5f82601f830112611e1657611e15611cf3565b5b8135611e26848260208601611dc1565b91505092915050565b5f5f60408385031215611e4557611e44611ab9565b5b5f611e5285828601611bba565b925050602083013567ffffffffffffffff811115611e7357611e72611abd565b5b611e7f85828601611e02565b9150509250929050565b5f5f60408385031215611e9f57611e9e611ab9565b5b5f611eac85828601611c8c565b9250506020611ebd85828601611bba565b9150509250929050565b611ed081611b93565b82525050565b5f602082019050611ee95f830184611ec7565b92915050565b5f5ffd5b5f5ffd5b5f5f83601f840112611f0c57611f0b611cf3565b5b8235905067ffffffffffffffff811115611f2957611f28611eef565b5b602083019150836001820283011115611f4557611f44611ef3565b5b9250929050565b5f5f83601f840112611f6157611f60611cf3565b5b8235905067ffffffffffffffff811115611f7e57611f7d611eef565b5b602083019150836020820283011115611f9a57611f99611ef3565b5b9250929050565b5f5f5f5f5f5f5f6080888a031215611fbc57611fbb611ab9565b5b5f611fc98a828b01611bba565b975050602088013567ffffffffffffffff811115611fea57611fe9611abd565b5b611ff68a828b01611ef7565b9650965050604088013567ffffffffffffffff81111561201957612018611abd565b5b6120258a828b01611ef7565b9450945050606088013567ffffffffffffffff81111561204857612047611abd565b5b6120548a828b01611f4c565b925092505092959891949750929550565b5f819050919050565b61207781612065565b8114612081575f5ffd5b50565b5f813590506120928161206e565b92915050565b5f60ff82169050919050565b6120ad81612098565b81146120b7575f5ffd5b50565b5f813590506120c8816120a4565b92915050565b5f5f5f606084860312156120e5576120e4611ab9565b5b5f6120f286828701611bba565b935050602061210386828701612084565b9250506040612114868287016120ba565b9150509250925092565b5f61212882611c23565b9050919050565b6121388161211e565b82525050565b5f6020820190506121515f83018461212f565b92915050565b61216081611b41565b811461216a575f5ffd5b50565b5f8135905061217b81612157565b92915050565b5f5f6040838503121561219757612196611ab9565b5b5f6121a485828601612084565b92505060206121b58582860161216d565b9150509250929050565b5f81519050919050565b5f82825260208201905092915050565b8281835e5f83830152505050565b5f6121f1826121bf565b6121fb81856121c9565b935061220b8185602086016121d9565b61221481611cfb565b840191505092915050565b5f6020820190508181035f83015261223781846121e7565b905092915050565b5f61224982611c23565b9050919050565b6122598161223f565b82525050565b5f6020820190506122725f830184612250565b92915050565b61228181611ac1565b82525050565b5f60208201905061229a5f830184612278565b92915050565b5f815190506122ae81612157565b92915050565b5f602082840312156122c9576122c8611ab9565b5b5f6122d6848285016122a0565b91505092915050565b5f6040820190506122f25f830185611ec7565b6122ff6020830184611ec7565b9392505050565b7f4e487b71000000000000000000000000000000000000000000000000000000005f52602260045260245ffd5b5f600282049050600182168061234a57607f821691505b60208210810361235d5761235c612306565b5b50919050565b5f819050815f5260205f209050919050565b5f815461238181612333565b61238b81866121c9565b9450600182165f81146123a557600181146123bb576123ed565b60ff1983168652811515602002860193506123ed565b6123c485612363565b5f5b838110156123e5578154818901526001820191506020810190506123c6565b808801955050505b50505092915050565b5f6060820190506124095f830186611ec7565b818103602083015261241b8185612375565b9050818103604083015261242f81846121e7565b9050949350505050565b5f815190506124478161206e565b92915050565b5f6020828403121561246257612461611ab9565b5b5f61246f84828501612439565b91505092915050565b5f82825260208201905092915050565b5f5ffd5b82818337505050565b5f6124a08385612478565b93507f07ffffffffffffffffffffffffffffffffffffffffffffffffffffffffffffff8311156124d3576124d2612488565b5b6020830292506124e483858461248c565b82840190509392505050565b5f6040820190506125035f830186611ec7565b8181036020830152612516818486612495565b9050949350505050565b5f61252b83856121c9565b9350612538838584611db3565b61254183611cfb565b840190509392505050565b61255581612065565b82525050565b5f60a08201905061256e5f83018a611ec7565b818103602083015261258181888a612520565b90508181036040830152612596818688612520565b90506125a5606083018561254c565b6125b2608083018461254c565b98975050505050505050565b6125c781612098565b82525050565b5f6080820190506125e05f830187611ec7565b6125ed6020830186611ec7565b6125fa604083018561254c565b61260760608301846125be565b95945050505050565b5f6060820190506126235f830186611ec7565b612630602083018561254c565b61263d6040830184611b4c565b949350505050565b5f6040820190506126585f830185611ec7565b6126656020830184611ccb565b939250505056fea2646970667358221220c5e8b6f8a710879d15b435079b1c8c7331906019a01af9292088d9665c1d573c64736f6c634300081e0033","linkReferences":{}},"methodIdentifiers":{"ADMIN_ROLE()":"75b238fc","DEFAULT_ADMIN_ROLE()":"a217fddf","DIPLOMA_ISSUER_ROLE()":"7fbf450c","PROFESSOR_ROLE()":"c81cf771","addDiplomaIssuer(address)":"b940e8dc","addProfessor(address)":"4268edaa","enrollStudent(address,string)":"261d822f","getCertificationContract()":"a09e0d90","getGradebookContract()":"bd3b5172","getRoleAdmin(bytes32)":"248a9ca3","getStudentRegistryContract()":"3719ea1f","grantRole(bytes32,address)":"2f2ff15d","hasRole(bytes32,address)":"91d14854","issueDiploma(address,string,string,uint256[])":"4ffc2dd2","postGrade(address,uint256,uint8)":"53b65f77","renounceRole(bytes32,address)":"36568abe","revokeRole(bytes32,address)":"d547741f","s_certificationContract()":"f8df4872","s_facultyName()":"f39ed26e","s_gradebookContract()":"6688f193","s_studentRegistryContract()":"216a9af8","setCertificationContract(address)":"1985f45f","setGradebookContract(address)":"c7689ef2","setStudentRegistryContract(address)":"795fa5a7","setSubjectActivity(uint256,bool)":"d17d65e1","supportsInterface(bytes4)":"01ffc9a7"},"id":33}