{
    "abi": [
        {
            "type": "constructor",
            "inputs": [
                {
                    "name": "facultyName",
                    "type": "string",
                    "internalType": "string"
                },
                {
                    "name": "owner",
                    "type": "address",
                    "internalType": "address"
                }
            ],
            "stateMutability": "nonpayable"
        },
        {
            "type": "function",
            "name": "ADMIN_ROLE",
            "inputs": [],
            "outputs": [
                {
                    "name": "",
                    "type": "bytes32",
                    "internalType": "bytes32"
                }
            ],
            "stateMutability": "view"
        },
        {
            "type": "function",
            "name": "DEFAULT_ADMIN_ROLE",
            "inputs": [],
            "outputs": [
                {
                    "name": "",
                    "type": "bytes32",
                    "internalType": "bytes32"
                }
            ],
            "stateMutability": "view"
        },
        {
            "type": "function",
            "name": "DIPLOMA_ISSUER_ROLE",
            "inputs": [],
            "outputs": [
                {
                    "name": "",
                    "type": "bytes32",
                    "internalType": "bytes32"
                }
            ],
            "stateMutability": "view"
        },
        {
            "type": "function",
            "name": "PROFESSOR_ROLE",
            "inputs": [],
            "outputs": [
                {
                    "name": "",
                    "type": "bytes32",
                    "internalType": "bytes32"
                }
            ],
            "stateMutability": "view"
        },
        {
            "type": "function",
            "name": "addDiplomaIssuer",
            "inputs": [
                {
                    "name": "issuer",
                    "type": "address",
                    "internalType": "address"
                }
            ],
            "outputs": [],
            "stateMutability": "nonpayable"
        },
        {
            "type": "function",
            "name": "addProfessor",
            "inputs": [
                {
                    "name": "professor",
                    "type": "address",
                    "internalType": "address"
                }
            ],
            "outputs": [],
            "stateMutability": "nonpayable"
        },
        {
            "type": "function",
            "name": "addSubject",
            "inputs": [
                {
                    "name": "name",
                    "type": "string",
                    "internalType": "string"
                },
                {
                    "name": "credits",
                    "type": "uint8",
                    "internalType": "uint8"
                },
                {
                    "name": "professor",
                    "type": "address",
                    "internalType": "address"
                }
            ],
            "outputs": [],
            "stateMutability": "nonpayable"
        },
        {
            "type": "function",
            "name": "addSubject",
            "inputs": [
                {
                    "name": "name",
                    "type": "string",
                    "internalType": "string"
                },
                {
                    "name": "credits",
                    "type": "uint8",
                    "internalType": "uint8"
                }
            ],
            "outputs": [],
            "stateMutability": "nonpayable"
        },
        {
            "type": "function",
            "name": "enrollStudent",
            "inputs": [
                {
                    "name": "student",
                    "type": "address",
                    "internalType": "address"
                },
                {
                    "name": "registrationNumber",
                    "type": "string",
                    "internalType": "string"
                }
            ],
            "outputs": [],
            "stateMutability": "nonpayable"
        },
        {
            "type": "function",
            "name": "getCertificationContract",
            "inputs": [],
            "outputs": [
                {
                    "name": "",
                    "type": "address",
                    "internalType": "address"
                }
            ],
            "stateMutability": "view"
        },
        {
            "type": "function",
            "name": "getGradebookContract",
            "inputs": [],
            "outputs": [
                {
                    "name": "",
                    "type": "address",
                    "internalType": "address"
                }
            ],
            "stateMutability": "view"
        },
        {
            "type": "function",
            "name": "getRoleAdmin",
            "inputs": [
                {
                    "name": "role",
                    "type": "bytes32",
                    "internalType": "bytes32"
                }
            ],
            "outputs": [
                {
                    "name": "",
                    "type": "bytes32",
                    "internalType": "bytes32"
                }
            ],
            "stateMutability": "view"
        },
        {
            "type": "function",
            "name": "getStudentRegistryContract",
            "inputs": [],
            "outputs": [
                {
                    "name": "",
                    "type": "address",
                    "internalType": "address"
                }
            ],
            "stateMutability": "view"
        },
        {
            "type": "function",
            "name": "grantRole",
            "inputs": [
                {
                    "name": "role",
                    "type": "bytes32",
                    "internalType": "bytes32"
                },
                {
                    "name": "account",
                    "type": "address",
                    "internalType": "address"
                }
            ],
            "outputs": [],
            "stateMutability": "nonpayable"
        },
        {
            "type": "function",
            "name": "hasRole",
            "inputs": [
                {
                    "name": "role",
                    "type": "bytes32",
                    "internalType": "bytes32"
                },
                {
                    "name": "account",
                    "type": "address",
                    "internalType": "address"
                }
            ],
            "outputs": [
                {
                    "name": "",
                    "type": "bool",
                    "internalType": "bool"
                }
            ],
            "stateMutability": "view"
        },
        {
            "type": "function",
            "name": "issueDiploma",
            "inputs": [
                {
                    "name": "student",
                    "type": "address",
                    "internalType": "address"
                },
                {
                    "name": "degreeTitle",
                    "type": "string",
                    "internalType": "string"
                },
                {
                    "name": "major",
                    "type": "string",
                    "internalType": "string"
                },
                {
                    "name": "subjectIds",
                    "type": "uint256[]",
                    "internalType": "uint256[]"
                }
            ],
            "outputs": [],
            "stateMutability": "nonpayable"
        },
        {
            "type": "function",
            "name": "postGrade",
            "inputs": [
                {
                    "name": "student",
                    "type": "address",
                    "internalType": "address"
                },
                {
                    "name": "subjectId",
                    "type": "uint256",
                    "internalType": "uint256"
                },
                {
                    "name": "grade",
                    "type": "uint8",
                    "internalType": "uint8"
                }
            ],
            "outputs": [],
            "stateMutability": "nonpayable"
        },
        {
            "type": "function",
            "name": "renounceRole",
            "inputs": [
                {
                    "name": "role",
                    "type": "bytes32",
                    "internalType": "bytes32"
                },
                {
                    "name": "callerConfirmation",
                    "type": "address",
                    "internalType": "address"
                }
            ],
            "outputs": [],
            "stateMutability": "nonpayable"
        },
        {
            "type": "function",
            "name": "revokeRole",
            "inputs": [
                {
                    "name": "role",
                    "type": "bytes32",
                    "internalType": "bytes32"
                },
                {
                    "name": "account",
                    "type": "address",
                    "internalType": "address"
                }
            ],
            "outputs": [],
            "stateMutability": "nonpayable"
        },
        {
            "type": "function",
            "name": "s_certificationContract",
            "inputs": [],
            "outputs": [
                {
                    "name": "",
                    "type": "address",
                    "internalType": "contract ICertification"
                }
            ],
            "stateMutability": "view"
        },
        {
            "type": "function",
            "name": "s_facultyName",
            "inputs": [],
            "outputs": [
                {
                    "name": "",
                    "type": "string",
                    "internalType": "string"
                }
            ],
            "stateMutability": "view"
        },
        {
            "type": "function",
            "name": "s_gradebookContract",
            "inputs": [],
            "outputs": [
                {
                    "name": "",
                    "type": "address",
                    "internalType": "contract IGradebook"
                }
            ],
            "stateMutability": "view"
        },
        {
            "type": "function",
            "name": "s_studentRegistryContract",
            "inputs": [],
            "outputs": [
                {
                    "name": "",
                    "type": "address",
                    "internalType": "contract IStudentRegistry"
                }
            ],
            "stateMutability": "view"
        },
        {
            "type": "function",
            "name": "setCertificationContract",
            "inputs": [
                {
                    "name": "certificationContract",
                    "type": "address",
                    "internalType": "address"
                }
            ],
            "outputs": [],
            "stateMutability": "nonpayable"
        },
        {
            "type": "function",
            "name": "setGradebookContract",
            "inputs": [
                {
                    "name": "gradebookContract",
                    "type": "address",
                    "internalType": "address"
                }
            ],
            "outputs": [],
            "stateMutability": "nonpayable"
        },
        {
            "type": "function",
            "name": "setStudentRegistryContract",
            "inputs": [
                {
                    "name": "studentRegistryContract",
                    "type": "address",
                    "internalType": "address"
                }
            ],
            "outputs": [],
            "stateMutability": "nonpayable"
        },
        {
            "type": "function",
            "name": "setSubjectActivity",
            "inputs": [
                {
                    "name": "subjectId",
                    "type": "uint256",
                    "internalType": "uint256"
                },
                {
                    "name": "isActive",
                    "type": "bool",
                    "internalType": "bool"
                }
            ],
            "outputs": [],
            "stateMutability": "nonpayable"
        },
        {
            "type": "function",
            "name": "supportsInterface",
            "inputs": [
                {
                    "name": "interfaceId",
                    "type": "bytes4",
                    "internalType": "bytes4"
                }
            ],
            "outputs": [
                {
                    "name": "",
                    "type": "bool",
                    "internalType": "bool"
                }
            ],
            "stateMutability": "view"
        },
        {
            "type": "event",
            "name": "CertificationContractSet",
            "inputs": [
                {
                    "name": "newCertificationContract",
                    "type": "address",
                    "indexed": false,
                    "internalType": "address"
                },
                {
                    "name": "oldCertificationContract",
                    "type": "address",
                    "indexed": false,
                    "internalType": "address"
                }
            ],
            "anonymous": false
        },
        {
            "type": "event",
            "name": "DiplomaIssuerAdded",
            "inputs": [
                {
                    "name": "issuer",
                    "type": "address",
                    "indexed": true,
                    "internalType": "address"
                }
            ],
            "anonymous": false
        },
        {
            "type": "event",
            "name": "FacultyNameSet",
            "inputs": [
                {
                    "name": "facultyName",
                    "type": "string",
                    "indexed": false,
                    "internalType": "string"
                }
            ],
            "anonymous": false
        },
        {
            "type": "event",
            "name": "GradebookContractSet",
            "inputs": [
                {
                    "name": "newGradebookContract",
                    "type": "address",
                    "indexed": false,
                    "internalType": "address"
                },
                {
                    "name": "oldGradebookContract",
                    "type": "address",
                    "indexed": false,
                    "internalType": "address"
                }
            ],
            "anonymous": false
        },
        {
            "type": "event",
            "name": "ProfessorAdded",
            "inputs": [
                {
                    "name": "professor",
                    "type": "address",
                    "indexed": true,
                    "internalType": "address"
                }
            ],
            "anonymous": false
        },
        {
            "type": "event",
            "name": "RoleAdminChanged",
            "inputs": [
                {
                    "name": "role",
                    "type": "bytes32",
                    "indexed": true,
                    "internalType": "bytes32"
                },
                {
                    "name": "previousAdminRole",
                    "type": "bytes32",
                    "indexed": true,
                    "internalType": "bytes32"
                },
                {
                    "name": "newAdminRole",
                    "type": "bytes32",
                    "indexed": true,
                    "internalType": "bytes32"
                }
            ],
            "anonymous": false
        },
        {
            "type": "event",
            "name": "RoleGranted",
            "inputs": [
                {
                    "name": "role",
                    "type": "bytes32",
                    "indexed": true,
                    "internalType": "bytes32"
                },
                {
                    "name": "account",
                    "type": "address",
                    "indexed": true,
                    "internalType": "address"
                },
                {
                    "name": "sender",
                    "type": "address",
                    "indexed": true,
                    "internalType": "address"
                }
            ],
            "anonymous": false
        },
        {
            "type": "event",
            "name": "RoleRevoked",
            "inputs": [
                {
                    "name": "role",
                    "type": "bytes32",
                    "indexed": true,
                    "internalType": "bytes32"
                },
                {
                    "name": "account",
                    "type": "address",
                    "indexed": true,
                    "internalType": "address"
                },
                {
                    "name": "sender",
                    "type": "address",
                    "indexed": true,
                    "internalType": "address"
                }
            ],
            "anonymous": false
        },
        {
            "type": "event",
            "name": "StudentRegistryContractSet",
            "inputs": [
                {
                    "name": "newStudentRegistryContract",
                    "type": "address",
                    "indexed": false,
                    "internalType": "address"
                },
                {
                    "name": "oldStudentRegistryContract",
                    "type": "address",
                    "indexed": false,
                    "internalType": "address"
                }
            ],
            "anonymous": false
        },
        {
            "type": "error",
            "name": "AccessControlBadConfirmation",
            "inputs": []
        },
        {
            "type": "error",
            "name": "AccessControlUnauthorizedAccount",
            "inputs": [
                {
                    "name": "account",
                    "type": "address",
                    "internalType": "address"
                },
                {
                    "name": "neededRole",
                    "type": "bytes32",
                    "internalType": "bytes32"
                }
            ]
        },
        {
            "type": "error",
            "name": "UniversityCore__AccountIsNotProfessor",
            "inputs": [
                {
                    "name": "professor",
                    "type": "address",
                    "internalType": "address"
                }
            ]
        },
        {
            "type": "error",
            "name": "UniversityCore__AddressZero",
            "inputs": []
        },
        {
            "type": "error",
            "name": "UniversityCore__CertificationNotSet",
            "inputs": []
        },
        {
            "type": "error",
            "name": "UniversityCore__ContractDoesNotSupportIERC4671",
            "inputs": [
                {
                    "name": "verifiedContract",
                    "type": "address",
                    "internalType": "address"
                }
            ]
        },
        {
            "type": "error",
            "name": "UniversityCore__FacultyNameZero",
            "inputs": []
        },
        {
            "type": "error",
            "name": "UniversityCore__GradebookNotSet",
            "inputs": []
        },
        {
            "type": "error",
            "name": "UniversityCore__SameAddress",
            "inputs": []
        },
        {
            "type": "error",
            "name": "UniversityCore__StudentAlreadyHasDiploma",
            "inputs": [
                {
                    "name": "student",
                    "type": "address",
                    "internalType": "address"
                }
            ]
        },
        {
            "type": "error",
            "name": "UniversityCore__StudentEnrolledAlready",
            "inputs": [
                {
                    "name": "student",
                    "type": "address",
                    "internalType": "address"
                }
            ]
        },
        {
            "type": "error",
            "name": "UniversityCore__StudentIsNotEnrolled",
            "inputs": [
                {
                    "name": "student",
                    "type": "address",
                    "internalType": "address"
                }
            ]
        },
        {
            "type": "error",
            "name": "UniversityCore__StudentRegistryNotSet",
            "inputs": []
        }
    ],
    "bytecode": {
        "object": "0x608060405234801561000f575f5ffd5b5060405161363838038061363883398181016040528101906100319190610468565b5f73ffffffffffffffffffffffffffffffffffffffff168173ffffffffffffffffffffffffffffffffffffffff1603610096576040517f04fa1f8900000000000000000000000000000000000000000000000000000000815260040160405180910390fd5b5f8251036100d0576040517fbdaec2c200000000000000000000000000000000000000000000000000000000815260040160405180910390fd5b81600190816100df91906106d2565b507f8dc167bc30400287aaa8e01cf4e9530dc130b48b2e1a7e7d729d037539d828f18260405161010f91906107e9565b60405180910390a16101295f5f1b8261016260201b60201c565b5061015a7fa49807205ce4d355092ef5a8a18f56e8913cf4a201fbe287825b095693c217758261016260201b60201c565b505050610809565b5f610173838361025760201b60201c565b61024d5760015f5f8581526020019081526020015f205f015f8473ffffffffffffffffffffffffffffffffffffffff1673ffffffffffffffffffffffffffffffffffffffff1681526020019081526020015f205f6101000a81548160ff0219169083151502179055506101ea6102ba60201b60201c565b73ffffffffffffffffffffffffffffffffffffffff168273ffffffffffffffffffffffffffffffffffffffff16847f2f8788117e7eff1d82e926ec794901d17c78024a50270940304540a733656f0d60405160405180910390a460019050610251565b5f90505b92915050565b5f5f5f8481526020019081526020015f205f015f8373ffffffffffffffffffffffffffffffffffffffff1673ffffffffffffffffffffffffffffffffffffffff1681526020019081526020015f205f9054906101000a900460ff16905092915050565b5f33905090565b5f604051905090565b5f5ffd5b5f5ffd5b5f5ffd5b5f5ffd5b5f601f19601f8301169050919050565b7f4e487b71000000000000000000000000000000000000000000000000000000005f52604160045260245ffd5b610320826102da565b810181811067ffffffffffffffff8211171561033f5761033e6102ea565b5b80604052505050565b5f6103516102c1565b905061035d8282610317565b919050565b5f67ffffffffffffffff82111561037c5761037b6102ea565b5b610385826102da565b9050602081019050919050565b8281835e5f83830152505050565b5f6103b26103ad84610362565b610348565b9050828152602081018484840111156103ce576103cd6102d6565b5b6103d9848285610392565b509392505050565b5f82601f8301126103f5576103f46102d2565b5b81516104058482602086016103a0565b91505092915050565b5f73ffffffffffffffffffffffffffffffffffffffff82169050919050565b5f6104378261040e565b9050919050565b6104478161042d565b8114610451575f5ffd5b50565b5f815190506104628161043e565b92915050565b5f5f6040838503121561047e5761047d6102ca565b5b5f83015167ffffffffffffffff81111561049b5761049a6102ce565b5b6104a7858286016103e1565b92505060206104b885828601610454565b9150509250929050565b5f81519050919050565b7f4e487b71000000000000000000000000000000000000000000000000000000005f52602260045260245ffd5b5f600282049050600182168061051057607f821691505b602082108103610523576105226104cc565b5b50919050565b5f819050815f5260205f209050919050565b5f6020601f8301049050919050565b5f82821b905092915050565b5f600883026105857fffffffffffffffffffffffffffffffffffffffffffffffffffffffffffffffff8261054a565b61058f868361054a565b95508019841693508086168417925050509392505050565b5f819050919050565b5f819050919050565b5f6105d36105ce6105c9846105a7565b6105b0565b6105a7565b9050919050565b5f819050919050565b6105ec836105b9565b6106006105f8826105da565b848454610556565b825550505050565b5f5f905090565b610617610608565b6106228184846105e3565b505050565b5b818110156106455761063a5f8261060f565b600181019050610628565b5050565b601f82111561068a5761065b81610529565b6106648461053b565b81016020851015610673578190505b61068761067f8561053b565b830182610627565b50505b505050565b5f82821c905092915050565b5f6106aa5f198460080261068f565b1980831691505092915050565b5f6106c2838361069b565b9150826002028217905092915050565b6106db826104c2565b67ffffffffffffffff8111156106f4576106f36102ea565b5b6106fe82546104f9565b610709828285610649565b5f60209050601f83116001811461073a575f8415610728578287015190505b61073285826106b7565b865550610799565b601f19841661074886610529565b5f5b8281101561076f5784890151825560018201915060208501945060208101905061074a565b8683101561078c5784890151610788601f89168261069b565b8355505b6001600288020188555050505b505050505050565b5f82825260208201905092915050565b5f6107bb826104c2565b6107c581856107a1565b93506107d5818560208601610392565b6107de816102da565b840191505092915050565b5f6020820190508181035f83015261080181846107b1565b905092915050565b612e22806108165f395ff3fe608060405234801561000f575f5ffd5b50600436106101c2575f3560e01c80637fbf450c116100f7578063c74f745211610095578063d17d65e11161006f578063d17d65e1146104b4578063d547741f146104d0578063f39ed26e146104ec578063f8df48721461050a576101c2565b8063c74f74521461045e578063c7689ef21461047a578063c81cf77114610496576101c2565b8063a09e0d90116100d1578063a09e0d90146103e8578063a217fddf14610406578063b940e8dc14610424578063bd3b517214610440576101c2565b80637fbf450c1461037e57806388b622101461039c57806391d14854146103b8576101c2565b80633719ea1f1161016457806353b65f771161013e57806353b65f771461030a5780636688f1931461032657806375b238fc14610344578063795fa5a714610362576101c2565b80633719ea1f146102b45780634268edaa146102d25780634ffc2dd2146102ee576101c2565b8063248a9ca3116101a0578063248a9ca314610230578063261d822f146102605780632f2ff15d1461027c57806336568abe14610298576101c2565b806301ffc9a7146101c65780631985f45f146101f6578063216a9af814610212575b5f5ffd5b6101e060048036038101906101db9190612194565b610528565b6040516101ed91906121d9565b60405180910390f35b610210600480360381019061020b919061224c565b6105a1565b005b61021a610832565b60405161022791906122d2565b60405180910390f35b61024a6004803603810190610245919061231e565b610857565b6040516102579190612358565b60405180910390f35b61027a600480360381019061027591906124ad565b610873565b005b61029660048036038101906102919190612507565b610a8f565b005b6102b260048036038101906102ad9190612507565b610ab1565b005b6102bc610b2c565b6040516102c99190612554565b60405180910390f35b6102ec60048036038101906102e7919061224c565b610b54565b005b6103086004803603810190610303919061261f565b610bf0565b005b610324600480360381019061031f919061274c565b6110b6565b005b61032e611359565b60405161033b91906127bc565b60405180910390f35b61034c61137e565b6040516103599190612358565b60405180910390f35b61037c6004803603810190610377919061224c565b6113a2565b005b610386611633565b6040516103939190612358565b60405180910390f35b6103b660048036038101906103b191906127d5565b611657565b005b6103d260048036038101906103cd9190612507565b611803565b6040516103df91906121d9565b60405180910390f35b6103f0611866565b6040516103fd9190612554565b60405180910390f35b61040e61188e565b60405161041b9190612358565b60405180910390f35b61043e6004803603810190610439919061224c565b611894565b005b610448611930565b6040516104559190612554565b60405180910390f35b61047860048036038101906104739190612841565b611958565b005b610494600480360381019061048f919061224c565b611a98565b005b61049e611c50565b6040516104ab9190612358565b60405180910390f35b6104ce60048036038101906104c991906128c5565b611c74565b005b6104ea60048036038101906104e59190612507565b611db4565b005b6104f4611dd6565b6040516105019190612963565b60405180910390f35b610512611e62565b60405161051f91906129a3565b60405180910390f35b5f7f7965db0b000000000000000000000000000000000000000000000000000000007bffffffffffffffffffffffffffffffffffffffffffffffffffffffff1916827bffffffffffffffffffffffffffffffffffffffffffffffffffffffff1916148061059a575061059982611e87565b5b9050919050565b7fa49807205ce4d355092ef5a8a18f56e8913cf4a201fbe287825b095693c217756105cb81611ef0565b5f73ffffffffffffffffffffffffffffffffffffffff168273ffffffffffffffffffffffffffffffffffffffff1603610630576040517f04fa1f8900000000000000000000000000000000000000000000000000000000815260040160405180910390fd5b60045f9054906101000a900473ffffffffffffffffffffffffffffffffffffffff1673ffffffffffffffffffffffffffffffffffffffff168273ffffffffffffffffffffffffffffffffffffffff16036106b6576040517f4b75072100000000000000000000000000000000000000000000000000000000815260040160405180910390fd5b8173ffffffffffffffffffffffffffffffffffffffff166301ffc9a77fa511533d000000000000000000000000000000000000000000000000000000006040518263ffffffff1660e01b815260040161070f91906129cb565b602060405180830381865afa15801561072a573d5f5f3e3d5ffd5b505050506040513d601f19601f8201168201806040525081019061074e91906129f8565b61078f57816040517f9e8b0a9a0000000000000000000000000000000000000000000000000000000081526004016107869190612554565b60405180910390fd5b5f60045f9054906101000a900473ffffffffffffffffffffffffffffffffffffffff1690508260045f6101000a81548173ffffffffffffffffffffffffffffffffffffffff021916908373ffffffffffffffffffffffffffffffffffffffff1602179055507f31c0a2bb738c5dcea2d5bfa9b27c441c4b886bff19611b9ce208130adc20c2e28382604051610825929190612a23565b60405180910390a1505050565b60025f9054906101000a900473ffffffffffffffffffffffffffffffffffffffff1681565b5f5f5f8381526020019081526020015f20600101549050919050565b7fa49807205ce4d355092ef5a8a18f56e8913cf4a201fbe287825b095693c2177561089d81611ef0565b5f73ffffffffffffffffffffffffffffffffffffffff1660025f9054906101000a900473ffffffffffffffffffffffffffffffffffffffff1673ffffffffffffffffffffffffffffffffffffffff1603610923576040517f751e599600000000000000000000000000000000000000000000000000000000815260040160405180910390fd5b60025f9054906101000a900473ffffffffffffffffffffffffffffffffffffffff1673ffffffffffffffffffffffffffffffffffffffff166343945512846040518263ffffffff1660e01b815260040161097d9190612554565b602060405180830381865afa158015610998573d5f5f3e3d5ffd5b505050506040513d601f19601f820116820180604052508101906109bc91906129f8565b156109fe57826040517f7b0cb0c10000000000000000000000000000000000000000000000000000000081526004016109f59190612554565b60405180910390fd5b60025f9054906101000a900473ffffffffffffffffffffffffffffffffffffffff1673ffffffffffffffffffffffffffffffffffffffff16637d853e7f846001856040518463ffffffff1660e01b8152600401610a5d93929190612b3a565b5f604051808303815f87803b158015610a74575f5ffd5b505af1158015610a86573d5f5f3e3d5ffd5b50505050505050565b610a9882610857565b610aa181611ef0565b610aab8383611f04565b50505050565b610ab9611fed565b73ffffffffffffffffffffffffffffffffffffffff168173ffffffffffffffffffffffffffffffffffffffff1614610b1d576040517f6697b23200000000000000000000000000000000000000000000000000000000815260040160405180910390fd5b610b278282611ff4565b505050565b5f60025f9054906101000a900473ffffffffffffffffffffffffffffffffffffffff16905090565b7fa49807205ce4d355092ef5a8a18f56e8913cf4a201fbe287825b095693c21775610b7e81611ef0565b610ba87f577f08e4a510a24c05fb531f78cace5d373d442eb2ba1e22f5bcf2bf4248c21e83611f04565b508173ffffffffffffffffffffffffffffffffffffffff167fc314a8ab46f679df157d309facb47ada7dbb5e5e6f33f130257acb39c8237c4060405160405180910390a25050565b7f831b9b994401fca9c4ed59f2def8ec13f55ed080f3121b3b325773edd3ddc9e0610c1a81611ef0565b5f73ffffffffffffffffffffffffffffffffffffffff1660025f9054906101000a900473ffffffffffffffffffffffffffffffffffffffff1673ffffffffffffffffffffffffffffffffffffffff1603610ca0576040517f751e599600000000000000000000000000000000000000000000000000000000815260040160405180910390fd5b5f73ffffffffffffffffffffffffffffffffffffffff1660045f9054906101000a900473ffffffffffffffffffffffffffffffffffffffff1673ffffffffffffffffffffffffffffffffffffffff1603610d26576040517f7b24d55f00000000000000000000000000000000000000000000000000000000815260040160405180910390fd5b60025f9054906101000a900473ffffffffffffffffffffffffffffffffffffffff1673ffffffffffffffffffffffffffffffffffffffff166343945512896040518263ffffffff1660e01b8152600401610d809190612554565b602060405180830381865afa158015610d9b573d5f5f3e3d5ffd5b505050506040513d601f19601f82011682018060405250810190610dbf91906129f8565b610e0057876040517fd78dbdde000000000000000000000000000000000000000000000000000000008152600401610df79190612554565b60405180910390fd5b60045f9054906101000a900473ffffffffffffffffffffffffffffffffffffffff1673ffffffffffffffffffffffffffffffffffffffff166343945512896040518263ffffffff1660e01b8152600401610e5a9190612554565b602060405180830381865afa158015610e75573d5f5f3e3d5ffd5b505050506040513d601f19601f82011682018060405250810190610e9991906129f8565b15610edb57876040517fdac6a43f000000000000000000000000000000000000000000000000000000008152600401610ed29190612554565b60405180910390fd5b5f60035f9054906101000a900473ffffffffffffffffffffffffffffffffffffffff1673ffffffffffffffffffffffffffffffffffffffff1663732c2b5a8a6040518263ffffffff1660e01b8152600401610f369190612554565b602060405180830381865afa158015610f51573d5f5f3e3d5ffd5b505050506040513d601f19601f82011682018060405250810190610f759190612b91565b90505f60035f9054906101000a900473ffffffffffffffffffffffffffffffffffffffff1673ffffffffffffffffffffffffffffffffffffffff166326fd66048b87876040518463ffffffff1660e01b8152600401610fd693929190612c34565b602060405180830381865afa158015610ff1573d5f5f3e3d5ffd5b505050506040513d601f19601f820116820180604052508101906110159190612b91565b905060045f9054906101000a900473ffffffffffffffffffffffffffffffffffffffff1673ffffffffffffffffffffffffffffffffffffffff16637eb45cd78b8b8b8b8b88886040518863ffffffff1660e01b815260040161107d9796959493929190612c9f565b5f604051808303815f87803b158015611094575f5ffd5b505af11580156110a6573d5f5f3e3d5ffd5b5050505050505050505050505050565b7f577f08e4a510a24c05fb531f78cace5d373d442eb2ba1e22f5bcf2bf4248c21e6110e081611ef0565b5f73ffffffffffffffffffffffffffffffffffffffff1660035f9054906101000a900473ffffffffffffffffffffffffffffffffffffffff1673ffffffffffffffffffffffffffffffffffffffff1603611166576040517ff07bccce00000000000000000000000000000000000000000000000000000000815260040160405180910390fd5b5f73ffffffffffffffffffffffffffffffffffffffff1660025f9054906101000a900473ffffffffffffffffffffffffffffffffffffffff1673ffffffffffffffffffffffffffffffffffffffff16036111ec576040517f751e599600000000000000000000000000000000000000000000000000000000815260040160405180910390fd5b60025f9054906101000a900473ffffffffffffffffffffffffffffffffffffffff1673ffffffffffffffffffffffffffffffffffffffff166343945512856040518263ffffffff1660e01b81526004016112469190612554565b602060405180830381865afa158015611261573d5f5f3e3d5ffd5b505050506040513d601f19601f8201168201806040525081019061128591906129f8565b6112c657836040517fd78dbdde0000000000000000000000000000000000000000000000000000000081526004016112bd9190612554565b60405180910390fd5b60035f9054906101000a900473ffffffffffffffffffffffffffffffffffffffff1673ffffffffffffffffffffffffffffffffffffffff16637077be7d338686866040518563ffffffff1660e01b81526004016113269493929190612d11565b5f604051808303815f87803b15801561133d575f5ffd5b505af115801561134f573d5f5f3e3d5ffd5b5050505050505050565b60035f9054906101000a900473ffffffffffffffffffffffffffffffffffffffff1681565b7fa49807205ce4d355092ef5a8a18f56e8913cf4a201fbe287825b095693c2177581565b7fa49807205ce4d355092ef5a8a18f56e8913cf4a201fbe287825b095693c217756113cc81611ef0565b5f73ffffffffffffffffffffffffffffffffffffffff168273ffffffffffffffffffffffffffffffffffffffff1603611431576040517f04fa1f8900000000000000000000000000000000000000000000000000000000815260040160405180910390fd5b60025f9054906101000a900473ffffffffffffffffffffffffffffffffffffffff1673ffffffffffffffffffffffffffffffffffffffff168273ffffffffffffffffffffffffffffffffffffffff16036114b7576040517f4b75072100000000000000000000000000000000000000000000000000000000815260040160405180910390fd5b8173ffffffffffffffffffffffffffffffffffffffff166301ffc9a77fa511533d000000000000000000000000000000000000000000000000000000006040518263ffffffff1660e01b815260040161151091906129cb565b602060405180830381865afa15801561152b573d5f5f3e3d5ffd5b505050506040513d601f19601f8201168201806040525081019061154f91906129f8565b61159057816040517f9e8b0a9a0000000000000000000000000000000000000000000000000000000081526004016115879190612554565b60405180910390fd5b5f60025f9054906101000a900473ffffffffffffffffffffffffffffffffffffffff1690508260025f6101000a81548173ffffffffffffffffffffffffffffffffffffffff021916908373ffffffffffffffffffffffffffffffffffffffff1602179055507f736a87d17187c02a6304330f811e2544b5ef5253dbf350ca6d1e3778f694bf068382604051611626929190612a23565b60405180910390a1505050565b7f831b9b994401fca9c4ed59f2def8ec13f55ed080f3121b3b325773edd3ddc9e081565b7fa49807205ce4d355092ef5a8a18f56e8913cf4a201fbe287825b095693c2177561168181611ef0565b5f73ffffffffffffffffffffffffffffffffffffffff1660035f9054906101000a900473ffffffffffffffffffffffffffffffffffffffff1673ffffffffffffffffffffffffffffffffffffffff1603611707576040517ff07bccce00000000000000000000000000000000000000000000000000000000815260040160405180910390fd5b6117317f577f08e4a510a24c05fb531f78cace5d373d442eb2ba1e22f5bcf2bf4248c21e83611803565b61177257816040517ffcdc1ec80000000000000000000000000000000000000000000000000000000081526004016117699190612554565b60405180910390fd5b60035f9054906101000a900473ffffffffffffffffffffffffffffffffffffffff1673ffffffffffffffffffffffffffffffffffffffff166388b622108585856040518463ffffffff1660e01b81526004016117d093929190612d54565b5f604051808303815f87803b1580156117e7575f5ffd5b505af11580156117f9573d5f5f3e3d5ffd5b5050505050505050565b5f5f5f8481526020019081526020015f205f015f8373ffffffffffffffffffffffffffffffffffffffff1673ffffffffffffffffffffffffffffffffffffffff1681526020019081526020015f205f9054906101000a900460ff16905092915050565b5f60045f9054906101000a900473ffffffffffffffffffffffffffffffffffffffff16905090565b5f5f1b81565b7fa49807205ce4d355092ef5a8a18f56e8913cf4a201fbe287825b095693c217756118be81611ef0565b6118e87f831b9b994401fca9c4ed59f2def8ec13f55ed080f3121b3b325773edd3ddc9e083611f04565b508173ffffffffffffffffffffffffffffffffffffffff167f7a67dcd3c19b23ebd0f508847a7138b199fb847d7167bf12ad9f00d060fe11aa60405160405180910390a25050565b5f60035f9054906101000a900473ffffffffffffffffffffffffffffffffffffffff16905090565b7f577f08e4a510a24c05fb531f78cace5d373d442eb2ba1e22f5bcf2bf4248c21e61198281611ef0565b5f73ffffffffffffffffffffffffffffffffffffffff1660035f9054906101000a900473ffffffffffffffffffffffffffffffffffffffff1673ffffffffffffffffffffffffffffffffffffffff1603611a08576040517ff07bccce00000000000000000000000000000000000000000000000000000000815260040160405180910390fd5b60035f9054906101000a900473ffffffffffffffffffffffffffffffffffffffff1673ffffffffffffffffffffffffffffffffffffffff166388b622108484336040518463ffffffff1660e01b8152600401611a6693929190612d54565b5f604051808303815f87803b158015611a7d575f5ffd5b505af1158015611a8f573d5f5f3e3d5ffd5b50505050505050565b7fa49807205ce4d355092ef5a8a18f56e8913cf4a201fbe287825b095693c21775611ac281611ef0565b5f73ffffffffffffffffffffffffffffffffffffffff168273ffffffffffffffffffffffffffffffffffffffff1603611b27576040517f04fa1f8900000000000000000000000000000000000000000000000000000000815260040160405180910390fd5b60035f9054906101000a900473ffffffffffffffffffffffffffffffffffffffff1673ffffffffffffffffffffffffffffffffffffffff168273ffffffffffffffffffffffffffffffffffffffff1603611bad576040517f4b75072100000000000000000000000000000000000000000000000000000000815260040160405180910390fd5b5f60035f9054906101000a900473ffffffffffffffffffffffffffffffffffffffff1690508260035f6101000a81548173ffffffffffffffffffffffffffffffffffffffff021916908373ffffffffffffffffffffffffffffffffffffffff1602179055507f65022936a9ebe6bf29320fb769e0cdae47dcfb73c86c047c2b65cf2b4f1e4d2e8382604051611c43929190612a23565b60405180910390a1505050565b7f577f08e4a510a24c05fb531f78cace5d373d442eb2ba1e22f5bcf2bf4248c21e81565b7f577f08e4a510a24c05fb531f78cace5d373d442eb2ba1e22f5bcf2bf4248c21e611c9e81611ef0565b5f73ffffffffffffffffffffffffffffffffffffffff1660035f9054906101000a900473ffffffffffffffffffffffffffffffffffffffff1673ffffffffffffffffffffffffffffffffffffffff1603611d24576040517ff07bccce00000000000000000000000000000000000000000000000000000000815260040160405180910390fd5b60035f9054906101000a900473ffffffffffffffffffffffffffffffffffffffff1673ffffffffffffffffffffffffffffffffffffffff16630e0b841f3385856040518463ffffffff1660e01b8152600401611d8293929190612d90565b5f604051808303815f87803b158015611d99575f5ffd5b505af1158015611dab573d5f5f3e3d5ffd5b50505050505050565b611dbd82610857565b611dc681611ef0565b611dd08383611ff4565b50505050565b60018054611de390612a77565b80601f0160208091040260200160405190810160405280929190818152602001828054611e0f90612a77565b8015611e5a5780601f10611e3157610100808354040283529160200191611e5a565b820191905f5260205f20905b815481529060010190602001808311611e3d57829003601f168201915b505050505081565b60045f9054906101000a900473ffffffffffffffffffffffffffffffffffffffff1681565b5f7f01ffc9a7000000000000000000000000000000000000000000000000000000007bffffffffffffffffffffffffffffffffffffffffffffffffffffffff1916827bffffffffffffffffffffffffffffffffffffffffffffffffffffffff1916149050919050565b611f0181611efc611fed565b6120dd565b50565b5f611f0f8383611803565b611fe35760015f5f8581526020019081526020015f205f015f8473ffffffffffffffffffffffffffffffffffffffff1673ffffffffffffffffffffffffffffffffffffffff1681526020019081526020015f205f6101000a81548160ff021916908315150217905550611f80611fed565b73ffffffffffffffffffffffffffffffffffffffff168273ffffffffffffffffffffffffffffffffffffffff16847f2f8788117e7eff1d82e926ec794901d17c78024a50270940304540a733656f0d60405160405180910390a460019050611fe7565b5f90505b92915050565b5f33905090565b5f611fff8383611803565b156120d3575f5f5f8581526020019081526020015f205f015f8473ffffffffffffffffffffffffffffffffffffffff1673ffffffffffffffffffffffffffffffffffffffff1681526020019081526020015f205f6101000a81548160ff021916908315150217905550612070611fed565b73ffffffffffffffffffffffffffffffffffffffff168273ffffffffffffffffffffffffffffffffffffffff16847ff6391f5c32d9c69d2a47ea670b442974b53935d1edc7fd64eb21e047a839171b60405160405180910390a4600190506120d7565b5f90505b92915050565b6120e78282611803565b61212a5780826040517fe2517d3f000000000000000000000000000000000000000000000000000000008152600401612121929190612dc5565b60405180910390fd5b5050565b5f604051905090565b5f5ffd5b5f5ffd5b5f7fffffffff0000000000000000000000000000000000000000000000000000000082169050919050565b6121738161213f565b811461217d575f5ffd5b50565b5f8135905061218e8161216a565b92915050565b5f602082840312156121a9576121a8612137565b5b5f6121b684828501612180565b91505092915050565b5f8115159050919050565b6121d3816121bf565b82525050565b5f6020820190506121ec5f8301846121ca565b92915050565b5f73ffffffffffffffffffffffffffffffffffffffff82169050919050565b5f61221b826121f2565b9050919050565b61222b81612211565b8114612235575f5ffd5b50565b5f8135905061224681612222565b92915050565b5f6020828403121561226157612260612137565b5b5f61226e84828501612238565b91505092915050565b5f819050919050565b5f61229a612295612290846121f2565b612277565b6121f2565b9050919050565b5f6122ab82612280565b9050919050565b5f6122bc826122a1565b9050919050565b6122cc816122b2565b82525050565b5f6020820190506122e55f8301846122c3565b92915050565b5f819050919050565b6122fd816122eb565b8114612307575f5ffd5b50565b5f81359050612318816122f4565b92915050565b5f6020828403121561233357612332612137565b5b5f6123408482850161230a565b91505092915050565b612352816122eb565b82525050565b5f60208201905061236b5f830184612349565b92915050565b5f5ffd5b5f5ffd5b5f601f19601f8301169050919050565b7f4e487b71000000000000000000000000000000000000000000000000000000005f52604160045260245ffd5b6123bf82612379565b810181811067ffffffffffffffff821117156123de576123dd612389565b5b80604052505050565b5f6123f061212e565b90506123fc82826123b6565b919050565b5f67ffffffffffffffff82111561241b5761241a612389565b5b61242482612379565b9050602081019050919050565b828183375f83830152505050565b5f61245161244c84612401565b6123e7565b90508281526020810184848401111561246d5761246c612375565b5b612478848285612431565b509392505050565b5f82601f83011261249457612493612371565b5b81356124a484826020860161243f565b91505092915050565b5f5f604083850312156124c3576124c2612137565b5b5f6124d085828601612238565b925050602083013567ffffffffffffffff8111156124f1576124f061213b565b5b6124fd85828601612480565b9150509250929050565b5f5f6040838503121561251d5761251c612137565b5b5f61252a8582860161230a565b925050602061253b85828601612238565b9150509250929050565b61254e81612211565b82525050565b5f6020820190506125675f830184612545565b92915050565b5f5ffd5b5f5ffd5b5f5f83601f84011261258a57612589612371565b5b8235905067ffffffffffffffff8111156125a7576125a661256d565b5b6020830191508360018202830111156125c3576125c2612571565b5b9250929050565b5f5f83601f8401126125df576125de612371565b5b8235905067ffffffffffffffff8111156125fc576125fb61256d565b5b60208301915083602082028301111561261857612617612571565b5b9250929050565b5f5f5f5f5f5f5f6080888a03121561263a57612639612137565b5b5f6126478a828b01612238565b975050602088013567ffffffffffffffff8111156126685761266761213b565b5b6126748a828b01612575565b9650965050604088013567ffffffffffffffff8111156126975761269661213b565b5b6126a38a828b01612575565b9450945050606088013567ffffffffffffffff8111156126c6576126c561213b565b5b6126d28a828b016125ca565b925092505092959891949750929550565b5f819050919050565b6126f5816126e3565b81146126ff575f5ffd5b50565b5f81359050612710816126ec565b92915050565b5f60ff82169050919050565b61272b81612716565b8114612735575f5ffd5b50565b5f8135905061274681612722565b92915050565b5f5f5f6060848603121561276357612762612137565b5b5f61277086828701612238565b935050602061278186828701612702565b925050604061279286828701612738565b9150509250925092565b5f6127a6826122a1565b9050919050565b6127b68161279c565b82525050565b5f6020820190506127cf5f8301846127ad565b92915050565b5f5f5f606084860312156127ec576127eb612137565b5b5f84013567ffffffffffffffff8111156128095761280861213b565b5b61281586828701612480565b935050602061282686828701612738565b925050604061283786828701612238565b9150509250925092565b5f5f6040838503121561285757612856612137565b5b5f83013567ffffffffffffffff8111156128745761287361213b565b5b61288085828601612480565b925050602061289185828601612738565b9150509250929050565b6128a4816121bf565b81146128ae575f5ffd5b50565b5f813590506128bf8161289b565b92915050565b5f5f604083850312156128db576128da612137565b5b5f6128e885828601612702565b92505060206128f9858286016128b1565b9150509250929050565b5f81519050919050565b5f82825260208201905092915050565b8281835e5f83830152505050565b5f61293582612903565b61293f818561290d565b935061294f81856020860161291d565b61295881612379565b840191505092915050565b5f6020820190508181035f83015261297b818461292b565b905092915050565b5f61298d826122a1565b9050919050565b61299d81612983565b82525050565b5f6020820190506129b65f830184612994565b92915050565b6129c58161213f565b82525050565b5f6020820190506129de5f8301846129bc565b92915050565b5f815190506129f28161289b565b92915050565b5f60208284031215612a0d57612a0c612137565b5b5f612a1a848285016129e4565b91505092915050565b5f604082019050612a365f830185612545565b612a436020830184612545565b9392505050565b7f4e487b71000000000000000000000000000000000000000000000000000000005f52602260045260245ffd5b5f6002820490506001821680612a8e57607f821691505b602082108103612aa157612aa0612a4a565b5b50919050565b5f819050815f5260205f209050919050565b5f8154612ac581612a77565b612acf818661290d565b9450600182165f8114612ae95760018114612aff57612b31565b60ff198316865281151560200286019350612b31565b612b0885612aa7565b5f5b83811015612b2957815481890152600182019150602081019050612b0a565b808801955050505b50505092915050565b5f606082019050612b4d5f830186612545565b8181036020830152612b5f8185612ab9565b90508181036040830152612b73818461292b565b9050949350505050565b5f81519050612b8b816126ec565b92915050565b5f60208284031215612ba657612ba5612137565b5b5f612bb384828501612b7d565b91505092915050565b5f82825260208201905092915050565b5f5ffd5b82818337505050565b5f612be48385612bbc565b93507f07ffffffffffffffffffffffffffffffffffffffffffffffffffffffffffffff831115612c1757612c16612bcc565b5b602083029250612c28838584612bd0565b82840190509392505050565b5f604082019050612c475f830186612545565b8181036020830152612c5a818486612bd9565b9050949350505050565b5f612c6f838561290d565b9350612c7c838584612431565b612c8583612379565b840190509392505050565b612c99816126e3565b82525050565b5f60a082019050612cb25f83018a612545565b8181036020830152612cc581888a612c64565b90508181036040830152612cda818688612c64565b9050612ce96060830185612c90565b612cf66080830184612c90565b98975050505050505050565b612d0b81612716565b82525050565b5f608082019050612d245f830187612545565b612d316020830186612545565b612d3e6040830185612c90565b612d4b6060830184612d02565b95945050505050565b5f6060820190508181035f830152612d6c818661292b565b9050612d7b6020830185612d02565b612d886040830184612545565b949350505050565b5f606082019050612da35f830186612545565b612db06020830185612c90565b612dbd60408301846121ca565b949350505050565b5f604082019050612dd85f830185612545565b612de56020830184612349565b939250505056fea26469706673582212201b59b5721cbef24839ea92cbafad9ebd5afc915a0b6612a1c0202b2a5594c2d364736f6c634300081e0033",
        "linkReferences": {}
    },
    "methodIdentifiers": {
        "ADMIN_ROLE()": "75b238fc",
        "DEFAULT_ADMIN_ROLE()": "a217fddf",
        "DIPLOMA_ISSUER_ROLE()": "7fbf450c",
        "PROFESSOR_ROLE()": "c81cf771",
        "addDiplomaIssuer(address)": "b940e8dc",
        "addProfessor(address)": "4268edaa",
        "addSubject(string,uint8)": "c74f7452",
        "addSubject(string,uint8,address)": "88b62210",
        "enrollStudent(address,string)": "261d822f",
        "getCertificationContract()": "a09e0d90",
        "getGradebookContract()": "bd3b5172",
        "getRoleAdmin(bytes32)": "248a9ca3",
        "getStudentRegistryContract()": "3719ea1f",
        "grantRole(bytes32,address)": "2f2ff15d",
        "hasRole(bytes32,address)": "91d14854",
        "issueDiploma(address,string,string,uint256[])": "4ffc2dd2",
        "postGrade(address,uint256,uint8)": "53b65f77",
        "renounceRole(bytes32,address)": "36568abe",
        "revokeRole(bytes32,address)": "d547741f",
        "s_certificationContract()": "f8df4872",
        "s_facultyName()": "f39ed26e",
        "s_gradebookContract()": "6688f193",
        "s_studentRegistryContract()": "216a9af8",
        "setCertificationContract(address)": "1985f45f",
        "setGradebookContract(address)": "c7689ef2",
        "setStudentRegistryContract(address)": "795fa5a7",
        "setSubjectActivity(uint256,bool)": "d17d65e1",
        "supportsInterface(bytes4)": "01ffc9a7"
    },
    "id": 35
}